:020000040800F2
:10000000380F00205502000897620008B723000847
:1000100093620008990600084D6B0008000000007C
:10002000000000000000000000000000556600080D
:100030009D06000800000000D16200085766000815
:100040006F0200086F0200086F0200086F020008CC
:100050006F0200086F0200086F0200086F020008BC
:100060006F0200086F0200086F0200086F020008AC
:100070006F0200086F0200086F0200086F0200089C
:100080006F0200086F0200086F0200086F0200088C
:100090006F0200086F0200086F0200086F0200087C
:1000A0006F0200086F0200086F0200086F0200086C
:1000B0006F0200086F0200086F0200086F0200085C
:1000C0006F0200086F0200086F0200086F0200084C
:1000D0006F020008FD6A00086F0200086F02000846
:1000E0006F0200086F0200086F0200086F0200082C
:1000F0006F0200086F0200086F0200086F0200081C
:100100006F0200086F0200086F0200086F0200080B
:100110006F0200086F0200086F0200086F020008FB
:100120006F0200086F0200086F0200086F020008EB
:100130006F0200086F0200086F0200086F020008DB
:100140006F0200086F0200086F0200086F020008CB
:100150006F0200086F0200086F0200086F020008BB
:100160006F0200086F0200086F0200086F020008AB
:100170006F0200086F0200086F0200080000000014
:100180006F0200086F0200086F0200086F0200088B
:100190006F0200086F0200086F0200086F0200087B
:1001A0006F0200086F0200086F02000800F002F8FA
:1001B00000F041F80AA090E8000C82448344AAF1C0
:1001C0000107DA4501D100F036F8AFF2090EBAE8BE
:1001D0000F0013F0010F18BFFB1A43F0010318477B
:1001E0008CB30000ACB30000103A24BF78C878C1CB
:1001F000FAD8520724BF30C830C144BF04680C602D
:10020000704700000023002400250026103A28BF74
:1002100078C1FBD8520728BF30C148BF0B60704778
:10022000642900F08180002070471FB506F0F0FDC2
:100230001FBD10B510BD00F0FDF91146FFF7F5FF29
:1002400006F0B6FC00F01BFA03B4FFF7F2FF03BCA4
:1002500006F085FC0948804709480047FEE7FEE7AD
:10026000FEE7FEE7FEE7FEE7FEE7FEE7FEE7FEE766
:1002700004480549054A064B704700001967000805
:10028000AD01000838030020380F00203805002099
:1002900038050020704700000FB4044910B503AAC8
:1002A000029800F0B1F910BC5DF814FB20000020AA
:1002B0000FB41CB5074B06AA7B446946009005980D
:1002C00000F089F90020694600F098F91CBC5DF83F
:1002D00014FB00004103000070B504468569006806
:1002E000C10601D5302600E02026C00707D070BD2A
:1002F000D4E9012130469047206A401C20626D1EDF
:10030000F6D570BD70B5044685690078C00707D181
:1003100070BDD4E9012120209047206A401C206252
:100320006D1EF6D570BD00002DE9F0410646002493
:1003300010687529314616A510D0AFF3008000284B
:1003400002DA404213A507E031688A0701D512A5F9
:1003500002E0490704D511A5012401E0AFF30080B4
:1003600000210A2206F1240709E0B0FBF2FCB0FBF1
:10037000F2F302FB1C00303078541846491C002868
:10038000F3D123462A463046BDE8F04100F0C5B817
:10039000000000002D0000002B00000020000000E5
:1003A0002DE9F0474FF0000A89460446C0F820A026
:1003B0002046E1688847002876D0252806D0D4E971
:1003C00001219047206A401C2062F1E7E168204645
:1003D00000258847C4F81CA006460027C4F818A0CA
:1003E0002A2E09D0304606F0B3FB38B304EB870859
:1003F000303EC8F8186019E059F8041B204604EB99
:1004000087029161E1688847012F064618D1E069AB
:10041000002820DA25F020051DE0D8F8180000EBB0
:10042000800006EB40003038C8F818002046E1682C
:100430008847064606F08CFB0028EED1012F0AD033
:100440002E2E08D12046E16888477F1C0646022FE1
:1004500045F02005C4DBA069002803DA404245F0DE
:100460000105A061E80701D025F01005B6B1A6F19D
:100470004100192802D8203645F400654A46314625
:10048000204625604D46FFF7CBFE58B1012806D027
:10049000ED1D25F0070000F1080989E704E005F1EA
:1004A000040985E730468AE7206ABDE8F08710B581
:1004B000203AC0F00B80B1E81850203AA0E818505C
:1004C000B1E81850A0E81850BFF4F5AF5FEA027C1D
:1004D00024BFB1E81850A0E8185044BF18C918C08C
:1004E000BDE810405FEA827C24BF51F8043B40F82D
:1004F000043B08BF7047D20728BF31F8023B48BF12
:1005000011F8012B28BF20F8023B48BF00F8012B4F
:10051000704770477047704770472DE9F0470D46A8
:1005200099469246044600F124080168880604D5DD
:10053000E06921F01001216000E00120A84201DD06
:10054000471B00E00027A1697A1902EB0900081A8D
:10055000A0612078C00602D42046FFF7BDFE002629
:1005600008E0D4E901211AF806009047206A401CEF
:10057000761C20624E45F4DB2078C0060AD5204662
:10058000FFF7AAFE06E0D4E9012130209047206A57
:10059000401C2062381EA7F10107F4DC07E0D4E913
:1005A000012118F805009047206A401C2062281E8F
:1005B000A5F10105F3DC2046FFF7A4FE2078000634
:1005C00002D50220BDE8F0870120FBE701694A1C43
:1005D00002610878704700B58FB0CDE90131002184
:1005E000059105497944CDE9031011466846FFF7A6
:1005F000D7FE0FB000BD0000E5FFFFFF0A6802F85C
:10060000010B0A6070470000074B70B50D467B4434
:10061000FFF7E1FF0446284600F008F810B14FF05C
:10062000FF3070BD204670BD83650000007B00F088
:1006300080007047754600F02BF8AE46050069460D
:10064000534620F00700854618B020B5FFF710FE8E
:10065000BDE820404FF000064FF000074FF00008C3
:100660004FF0000B21F00701AC46ACE8C009ACE844
:10067000C009ACE8C009ACE8C0098D46704710B5A8
:100680000446AFF300802046BDE81040FFF7DCBD14
:1006900000487047D802002000BFFEE77047000006
:1006A00070B504461D460023B5F5804F13D154F8AC
:1006B00022300C480340D1E9000640EA06108E685B
:1006C00040EA06208E8940EA06408E6930430343A3
:1006D00044F8223003E06FF0704044F8220000201C
:1006E00070BD00000000F0CF10B50246002308687E
:1006F00052F820301B480340D1E901042043CC6864
:1007000020430C6920434C6920438C692043CC6909
:1007100020430C6A20434C6A20438C6A2043CC6AF5
:100720002043CC6B20430C6B20434C6B2043034392
:100730008868082801D143F04003086842F8203057
:10074000486BB0F5801F0AD1086840B14FF4807043
:1007500008614C6B08692043146820431060002036
:1007600010BD00008000E0FF30B5034614460022B3
:10077000601C53F8202002F04042D1E9000540EA15
:1007800005108D6840EA05208D8940EA0545088AF4
:10079000401E45EA0055087D801E45EA00608D69CF
:1007A00028430243601C43F82020186800F480109E
:1007B00038B1586820F47002088A401E42EA00529C
:1007C0005A60002030BD30B502460023002408687E
:1007D000012816D013686FF30E03D1E901052843F1
:1007E000CD6828430D6928434D6928438D69284306
:1007F000CD6928430D6A28434D6A2843034313609B
:1008000019E013686FF30E03D1E9070528434D6A19
:100810002843034354686FF30E04D1E901052843CC
:10082000CD6828430D6928434D6928438D692843C5
:10083000044313605460002030BD0246506940EA12
:100840004100506100207047F8B506460C46154639
:10085000002000900027D4E900010843A168491E48
:1008600040EA4110E16840EA412000900098306180
:1008700000F07CF9074609E0681C38B125B100F0AA
:1008800075F9C01BA84201D90320F8BDB06900F07A
:1008900020000028F0D100BFF7E770B503461546E9
:1008A00000220024012D1FD09A6802F070420868CF
:1008B000401E4E68761E40EA06168868401E46EACC
:1008C0000026C868401E46EA0036088A401E46EAEE
:1008D0000046888A401E46EA0056087E401E46EAC8
:1008E000006002439A6022E0DA6802F07042086811
:1008F000401E4E68761E40EA06168868401E46EA8C
:100900000026088A401E46EA0046087E401E46EA47
:10091000006002439C6804F07044C868401E0603EF
:10092000888A401E46EA00500443DA609C6000203A
:1009300070BD0000F8B502460B46002500240020DB
:100940000021E6E0012606FA01F51E6806EA050424
:10095000AC4273D15E68022E02D05E68122E13D1B3
:10096000CF0802F1200656F827004E07F70E0F2693
:10097000BE40B0434F07FF0E1E69BE403043CF0854
:1009800002F1200646F8270010684F000326BE40FB
:10099000B0431E7906F003064F00BE40304310609E
:1009A0005E68012E08D05E68022E05D05E68112EAA
:1009B00002D05E68122E13D190684F000326BE400D
:1009C000B0434F00DE68BE4030439060506801265F
:1009D0008E40B0431E79C6F300168E4030435060FF
:1009E000D0684F000326BE40B0434F009E68BE4013
:1009F0003043D0605E6806F08056B6F1805FA8D1C3
:100A000000BF00260096454E366846F48046434FA8
:100A10003E603E46366806F48046009600BF00BF42
:100A20003F4E8F0856F827008E07370F0F26BE401F
:100A3000B0433C4EB24202D100262EE068E03A4E6E
:100A4000B24201D1012628E0384EB24201D102263D
:100A500023E0374EB24201D103261EE0354EB242AA
:100A600001D1042619E0344EB24201D1052614E02A
:100A7000324EB24201D106260FE0314EB24201D1D0
:100A800007260AE02F4EB24201D1082605E02E4E7D
:100A9000B24201D1092600E00A268F073F0FBE406F
:100AA00030431F4E8F0846F82700284E3068A04379
:100AB0005E6806F48036B6F5803F00D12043234EB1
:100AC0003060361D3068A0435E6806F40036B6F527
:100AD000003F00D120431D4E361D3060361D30686A
:100AE000A0435E6806F48016B6F5801F00D120434F
:100AF000164E08363060361D3068A0435E6806F436
:100B00000016B6F5001F00D12043104E0C363060A1
:100B1000491C1029FFF416AFF8BD0000443802400C
:100B20000838014000000240000402400008024072
:100B3000000C024000100240001402400018024065
:100B4000001C02400020024000240240003C014002
:100B5000024613690B400BB1012000E000207047F2
:100B60000AB1816101E00B048361704701480068AC
:100B7000704700003000002002480068401C014916
:100B8000086070473000002010B50D48006840F440
:100B900000700B4908600846006840F480600860F7
:100BA0000846006840F480700860052000F062FA92
:100BB0000F2000F007F800F00DFA002010BD000033
:100BC000003C024070B5044600F0C6FD4FF47A7157
:100BD000B0FBF1F5284601F019FA00222146501E1B
:100BE00000F00AFA002070BD70B504460E461546A6
:100BF00000BF94F8A000012801D1022070BD01209F
:100C000084F8A00000BF022084F8A10005EB850154
:100C100001EBC50204F1380101EB820034223146B8
:100C2000FFF745FC2A463146204604F005F801202E
:100C30002168486284F8A10000BF002084F8A00069
:100C400000BF00BFDAE7000070B5044600250026AB
:100C50000CB9012070BD94F8A10028B9002084F8D7
:100C6000A000204600F084F8022084F8A10020684B
:100C7000806920F0704021688861D4E9010108434F
:100C8000E1680843216908432168896908432168AC
:100C90008861206880683549084021688860A08A9A
:100CA000050420688068A169294308432168886099
:100CB0002068C0682D4908402168C860A08B0504E1
:100CC0002068C068216A294308432168C8602068F9
:100CD00000692649084021680861A08C0504206845
:100CE0000069A16A294308432168086120684069B6
:100CF0001E49084021684861A08D050420684069AC
:100D0000216B294308432168486194F835000502A6
:100D100094F8360006042068C06A00F07F4021681D
:100D2000C86246EA050094F8341008432168C96A8D
:100D300008432168C8622068406B40F004002168C5
:100D400048632068406B40F00200216848632068D7
:100D5000806940F00100216888610020C4F8A40087
:100D6000012084F8A100002074E7000000F800F0E2
:100D700010B586B0044600BF0020009057480068B8
:100D800040F08060554908600846006800F08060C7
:100D9000009000BF00BF00BF002000904F481438F3
:100DA000006840F400004D491439086008460068A6
:100DB00000F40000009000BF00BF00BF00200090C2
:100DC0000846006840F0020008600846006800F02D
:100DD0000200009000BF00BF00BF00200090084646
:100DE000006840F0040008600846006800F0040055
:100DF000009000BF00BF00BF0020009008460068C0
:100E000040F0200008600846006800F020000090D4
:100E100000BF00BF00BF002000900846006840F0FF
:100E2000400008600846006800F04000009000BFE5
:100E300000BF00BF002000900846006840F080001E
:100E400008600846006800F08000009000BF00BF06
:100E500000BF002000900846006840F480700860E1
:100E60000846006800F48070009000BF00BF40207A
:100E700001900120029003900320049001A91848DA
:100E8000FFF758FD4FF4806001900220029000208F
:100E90000390032004900E20059001A91148FFF74C
:100EA00049FD4FF40C60019001A90F48FFF742FD86
:100EB0004FF47E40019001A90C48FFF73BFD40F242
:100EC000F560019001A90A48FFF734FD80200190E8
:100ED00001A90348FFF72EFD06B010BD44380240BB
:100EE000000802400014024000180240001C0240AA
:100EF000002002402DE9F04104460E461746984670
:100F000000BF94F8A000012802D10220BDE8F081C2
:100F1000012084F8A00000BF022084F8A10008EBA3
:100F2000880000EBC80104F1380000EB81052E6059
:100F3000A86A30446860AF60E86A3844E8604246B6
:100F40002946204603F078FE01202168486284F893
:100F5000A10000BF002084F8A00000BF00BFD5E7BB
:100F60002DE9F04105460E461746984600BF95F814
:100F7000A000012802D10220BDE8F081012085F8FF
:100F8000A00000BF022085F8A10008EB880000EB5C
:100F9000C80105F1380000EB8104002020602068C2
:100FA000304460600020A060A0683844E060A66221
:100FB000E76242462146284603F03EFE01202968AA
:100FC000486285F8A10000BF002085F8A00000BF9E
:100FD00000BFD1E708B50020009000BF08BD00BFEA
:100FE00000F01F02012191404209920002F1E0222B
:100FF000C2F8001100BF70472DE9F05F80460D4632
:101000001646002705F048F9074639462A46334672
:1010100001F00700C0F1070ABAF1040F02D94FF03E
:10102000040A01E0C0F1070AD14600F1040ABAF14E
:10103000070F02D24FF0000A01E0A0F1030AD446E4
:101040004FF0010A0AFA09FAAAF1010A0AEA020AA9
:101050000AFA0CFA4FF0010B0BFA0CFBABF1010B87
:101060000BEA030B4AEA0B042146404605F01CF943
:10107000BDE8F09F00BF00F00702064B19684FF66D
:10108000FF031940044B0B4343EA0221014B196053
:1010900000BF70470CED00E00000FA0538B50024F1
:1010A00000BF002000902348006840F08050214994
:1010B00008600846006800F08050009000BF00BF44
:1010C0000120010491FAA1F1B1FA81F11A4A42F822
:1010D0002100FFF74BFD044607E0FFF747FD001B2B
:1010E000B0F57A7F01D9032038BD1448406800F478
:1010F0008030B0F5803FF0D10120410491FAA1F198
:10110000B1FA81F10C4A42F82100FFF72FFD0446A5
:1011100007E0FFF72BFD001BB0F57A7F01D9032014
:10112000E2E70648406800F40030B0F5003FF0D137
:101130000020D9E74038024000000E420070004015
:10114000F8B5044600250026207800F0010020B9FB
:10115000207800F00200022866D10020CC49886681
:10116000FFF704FD054606E0FFF700FD401B64287D
:1011700001D90320F8BDC7480068C0F3C06000284B
:10118000F2D1207800F0010098B147F6C07191FAD1
:10119000A1F1B1FA81F1606888404FF0E04292FA23
:1011A000A2F2B2FA82F2A16891400843B9498431AF
:1011B0000860207800F00200022821D1B548843070
:1011C000006800F0E0404FF0E04191FAA1F1B1FA7F
:1011D00081F120FA01F660688101207B41EA00601C
:1011E00040EA0670AB4984310860AA488C30006838
:1011F00020F01F00E169491E0843A6498C310860B0
:101200000120A3498866FFF7B1FC054606E0FFF719
:10121000ADFC401B642801D90320ABE79D48006862
:10122000C0F3C0600028F2D0207800F00400042849
:1012300004D0207800F0080008287DD100209449CF
:101240000867FFF793FC054606E0FFF78FFC401B9D
:10125000642801D903208DE78E480068C0F34070F0
:101260000028F2D1207800F00400042834D1894805
:101270008830006800F0E0404FF0E04191FAA1F1C1
:10128000B1FA81F120FA01F647F6C07191FAA1F1A5
:10129000B1FA81F1206988404FF0706292FAA2F2AF
:1012A000B2FA82F26169914008434FF0E04191FA4D
:1012B000A1F1B1FA81F106FA01F1084375498831CB
:1012C0000860081D006820F4F851206A401E41EAB9
:1012D000002070498C310860207800F00800082850
:1012E00034D16C488830006800F070604FF0706155
:1012F00091FAA1F1B1FA81F120FA01F647F6C07135
:1013000091FAA1F1B1FA81F1206988404FF0706142
:1013100091FAA1F1B1FA81F106FA01F108434FF017
:10132000E04292FAA2F2B2FA82F2A1699140084335
:1013300058498831086000E01CE0081D006820F46E
:101340004030616A084353498C310860012050499C
:101350000867FFF70BFC054606E0FFF707FC401B9C
:10136000642801D9032005E74A480068C0F34070AB
:101370000028F2D0207800F0200020287DD100BF86
:101380000020009043484030006840F080504149C0
:10139000403108600846006800F08050009000BFAF
:1013A00000BF3D48006840F480703B490860FFF78B
:1013B000DDFB054606E0FFF7D9FB401B642801D999
:1013C0000320D7E63448006800F480700028F2D08B
:1013D00030487030006800F44070218D01F4407195
:1013E00088424AD02B487030006820F440760120B3
:1013F0002A4908600020086026487030066006F020
:10140000020098B1FFF7B2FB054608E0FFF7AEFB1C
:10141000401B41F28831884201D90320AAE61D48C9
:1014200070300068C0F340000028EFD000BF208D6E
:1014300000F44070B0F5407F0CD1164808300068C9
:1014400020F4F810164AA16A1140084311490831E6
:10145000086007E00F480830006820F4F8100D49D4
:10146000083108600B4870300068218DC1F30B0112
:10147000084308497031086000BF207800F0100070
:10148000102803D194F82C0006490860002071E66A
:10149000000047420038024000700040400E4742C2
:1014A000FFFCFF0FE011474270B504460E460025D1
:1014B000A748006800F00F00B0426FD2A4490E7038
:1014C0000846006800F00F00B04201D0012070BD56
:1014D000207800F00200022807D19E48006820F022
:1014E000F000A16808439B490860207800F00100E3
:1014F00000283ED06068012807D196480838006867
:10150000C0F34040B8B90120E1E76068022802D08A
:101510006068032807D18F4808380068C0F340602E
:1015200048B90120D3E78B4808380068C0F3400071
:1015300008B90120CBE78748006820F00300616804
:10154000084384490860FFF711FB054660680128DD
:1015500010D108E0FFF70AFB401B41F288318842B6
:1015600001D90320B3E77B48006800F00C00042891
:10157000F0D1CDE06068022811D108E0FFF7F6FA5B
:10158000401B41F28831884201D903209FE771480E
:10159000006800F00C000828F0D1B9E024E0606891
:1015A000032810D108E0FFF7E1FA401B41F288312F
:1015B000884201D903208AE76648006800F00C00E1
:1015C0000328F0D1A4E008E0FFF7D0FA401B41F275
:1015D0008831884201D9032079E75E48006800F02D
:1015E0000C000028F0D193E0207800F002000228DF
:1015F00007D15848006820F0F000A1680843554919
:101600000860207800F00100002877D06068012889
:1016100007D1504808380068C0F34040B8B90120ED
:1016200055E76068022802D06068032807D149485E
:1016300008380068C0F3406048B9012047E74548D2
:1016400008380068C0F3400008B901203FE741486E
:10165000006820F00300616808433E490860FFF716
:1016600085FA05466068012810D108E0FFF77EFA88
:10167000401B41F28831884201D9032027E73548D1
:10168000006800F00C000428F0D137E06068022800
:1016900010D108E0FFF76AFA401B41F28831884216
:1016A00001D9032013E72B48006800F00C0008283C
:1016B000F0D123E06068032810D108E0FFF756FA64
:1016C000401B41F28831884201D90320FFE62148BE
:1016D000006800F00C000328F0D10FE008E0FFF7ED
:1016E00045FA401B41F28831884201D90320EEE6D9
:1016F0001848006800F00C000028F0D114490E7062
:101700000846006800F00F00B04201D00120DEE67C
:10171000207800F00400042807D10E48006820F467
:10172000E050E16808430B490860207800F00800A9
:10173000082808D10748006820F46040216940EA81
:10174000C100044908600F20FFF73CFA0020BEE604
:10175000003C02400838024010B500F045F8094945
:10176000096801F0F001F02292FAA2F2B2FA82F2D4
:10177000D140054A515CC8400449086008460068E9
:1017800010BD0000083802405AB5000800000020D3
:1017900010B5FFF7E1FF0749096801F4E0514FF484
:1017A000E05292FAA2F2B2FA82F2D140024A515CBD
:1017B000C84010BD083802405AB5000810B5FFF700
:1017C000CBFF0749096801F460414FF4604292FA87
:1017D000A2F2B2FA82F2D140024A515CC84010BD76
:1017E000083802405AB5000870B5002100220023D5
:1017F0000020274C246804F00C0424B1042C04D0ED
:10180000082C41D103E0234840E023483EE0204C2F
:10181000241F246804F03F011D4C241F246804F495
:10182000800484B11C4CB4FBF1F5194C241F2468CE
:1018300047F6C076344096FAA6F6B6FA86F6F44035
:1018400005FB04F20FE0134CB4FBF1F5104C241F20
:10185000246847F6C076344096FAA6F6B6FA86F6BD
:10186000F44005FB04F20A4C241F246804F44034BD
:101870004FF4403595FAA5F5B5FA85F5EC40641CB2
:101880006300B2FBF3F001E0024800BF00BF70BD8F
:10189000083802400024F40040787D0138B5044641
:1018A0000025207800F00100002866D0F748006885
:1018B00000F00C0004280DD0F448006800F00C0083
:1018C000082813D1F148001F006800F48000B0F52B
:1018D000800F0BD1ED4808380068C0F34040002865
:1018E0004BD06068002848D1012038BD0020E7496E
:1018F000891F0870FFF73AF9054608E0FFF736F947
:10190000401B41F28831884201D90320EDE7DF48CE
:1019100008380068C0F340400028EFD12079DB4947
:10192000891F08706068A0B1FFF720F9054608E03C
:10193000FFF71CF9401B41F28831884201D903208E
:10194000D3E7D24808380068C0F340400028EFD001
:1019500013E0FFF70BF9054608E0FFF707F9401B16
:1019600041F28831884201D90320BEE7C7480838D0
:101970000068C0F340400028EFD1207800F002005A
:10198000022869D1C148006800F00C0058B1BF4876
:10199000006800F00C00082821D1BC48001F006836
:1019A00000F48000D8B9B94808380068C0F3400096
:1019B00020B1E068012801D0012096E7B34808383B
:1019C000006820F0F800F82292FAA2F2B2FA82F24D
:1019D000216991400843AD49083908603CE0E0685E
:1019E00028B30120AA490860FFF7C0F8054606E0C1
:1019F000FFF7BCF8401B642801D9032075E7A34812
:101A000008380068C0F340000028F1D09F4808382B
:101A1000006820F0F800F82292FAA2F2B2FA82F2FC
:101A200021699140084399490839086014E0002071
:101A300097490860FFF79AF8054606E0FFF796F821
:101A4000401B642801D903204FE7904808380068FC
:101A5000C0F340000028F1D1207800F008000828E9
:101A60002CD16069A8B101208A490860FFF77EF88F
:101A7000054606E0FFF77AF8401B642801D90320E9
:101A800033E782486C300068C0F340000028F1D092
:101A900014E000207F490860FFF768F8054606E07B
:101AA000FFF764F8401B642801D903201DE777483D
:101AB0006C300068C0F340000028F1D1207800F0BD
:101AC000040004286FD100BF002000906F48383018
:101AD000006840F080506D49383108600846006861
:101AE00000F08050009000BF00BF6B48006840F4D9
:101AF000807069490860FFF739F8054606E0FFF78E
:101B000035F8401B642801D90320EEE662480068DE
:101B100000F480700028F2D000205C496831087021
:101B2000FFF724F8054608E0FFF720F8401B41F2D4
:101B30008831884201D90320D7E6544868300068CC
:101B4000C0F340000028EFD1207A50496831087076
:101B5000A068A0B1FFF70AF8054608E0FFF706F80D
:101B6000401B41F28831884201D90320BDE6474835
:101B700068300068C0F340000028EFD013E0FEF7A3
:101B8000F5FF054608E0FEF7F1FF401B41F2883102
:101B9000884201D90320A8E63C4868300068C0F3B9
:101BA00040000028EFD1A069F0B33848006800F089
:101BB0000C00082872D0A069022850D100203449B6
:101BC0000866FEF7D3FF054606E0FEF7CFFF401B91
:101BD000642801D9032088E62C4808380068C0F33F
:101BE00040600028F1D1D4E90701084347F6C072EC
:101BF00092FAA2F2B2FA82F2616A9140084301229B
:101C0000A16AC2EB51014FF4403292FAA2F2B2FA49
:101C100082F2914008434FF0706292FAA2F2B2FA57
:101C200082F2E16A914000E03AE008431749091F57
:101C30000860012016490866FEF798FF054606E091
:101C4000FEF794FF401B642801D903204DE60F489E
:101C500008380068C0F340600028F1D020E0002080
:101C60000B490866FEF782FF054606E0FEF77EFF99
:101C7000401B642801D9032037E60448083800686F
:101C8000C0F340600028F1D10AE007E008380240C4
:101C900000004742800E474200700040012024E6C9
:101CA000002022E670B504460D460CB9012070BD37
:101CB00094F82C0028B9002084F82D00204600F06C
:101CC00011F8022084F82C00211D2068FEF77BFD0E
:101CD0002946D4E90002FEF7E0FD012084F82C003B
:101CE0000020E4E710B586B0044600BF0020009055
:101CF0004348006840F00100414908600846006818
:101D000000F00100009000BF00BF00BF0020009065
:101D10003B480838006840F0080039490839086035
:101D20000846006800F00800009000BF00BF00BF38
:101D3000002000900846006840F010000860084647
:101D4000006800F01000009000BF00BF00BF00203E
:101D500000900846006840F02000086008460068CF
:101D600000F02000009000BF00BF00BF00200090E6
:101D70000846006840F0400008600846006800F02F
:101D80004000009000BF00BF00BF00200090084648
:101D9000006840F0800008600846006800F080009D
:101DA000009000BF00BF2C20019002200290012073
:101DB0000390032004900C20059001A91148FEF720
:101DC000B9FD4CF20370019001A90F48FEF7B2FD76
:101DD0004FF68370019001A90C48FEF7ABFD4FF65A
:101DE0003F00019001A90A48FEF7A4FD48F2371010
:101DF000019001A90748FEF79DFD06B010BD000047
:101E000038380240001C0240000C02400010024022
:101E1000001402400018024070B504460D4694F8C4
:101E20002C00022800D170BD022084F82C00294625
:101E30002068FEF702FD012084F82C000020F2E764
:101E400070B504460D46164694F82C00022800D1C1
:101E500070BD022084F82C00324629462068FEF727
:101E6000F3FC2868022803D1052084F82C0002E046
:101E7000012084F82C000020EAE770B504460E46E5
:101E800015460CB9012070BD94F8490028B900200E
:101E900084F84800204600F01DF804F1080120688D
:101EA000FEF722FC3146A2682068FEF75DFC294659
:101EB000236BD4E90102FEF7F3FBA168206850F818
:101EC000210040F00100A268216841F822000020B2
:101ED000D9E7000010B586B0044600BF002000908E
:101EE0004548006840F00100434908600846006822
:101EF00000F00100009000BF00BF00BF0020009074
:101F00003D480838006840F002003B490839086045
:101F10000846006800F00200009000BF00BF00BF4C
:101F2000002000900846006840F00800086008465D
:101F3000006800F00800009000BF00BF00BF002054
:101F400000900846006840F01000086008460068ED
:101F500000F01000009000BF00BF00BF0020009004
:101F60000846006840F0800008600846006800F0FD
:101F70008000009000BF00BF00BF002000901E48FE
:101F8000006840F001001C4908600846006800F045
:101F90000100009000BF00BF881501900120029051
:101FA000002003900320049001A91448FEF7C2FC0E
:101FB0001020019001200290002003900320049043
:101FC00001A90F48FEF7B6FC4CF6B3700190022051
:101FD000029001200390032004900C20059001A999
:101FE0000848FEF7A7FC4FF68070019001A906484B
:101FF000FEF7A0FC06B010BD3838024000040240D5
:10200000001C0240000C02400010024070B5044663
:102010002546681EB0F1807F01D301200FE0681EC5
:102020004FF0E02148610F214FF0FF3004F03CF900
:1020300000204FF0E021886107200861002070BD7A
:102040007047014691F839007047F8B504460025FD
:1020500000262068006800F001052068C06800F4D0
:1020600080767DB176B100BF0020009020680068C6
:10207000009020684068009000BF00BFE06B40F017
:102080000100E06320680068C0F3400520684069F3
:1020900000F001067DB176B100BF002000902068FD
:1020A0000068009020684068009000BF00BFE06BAF
:1020B00040F00400E06320680068C0F380052068F9
:1020C000406900F001067DB176B100BF00200090AC
:1020D00020680068009020684068009000BF00BF42
:1020E000E06B40F00200E06320680068C0F3C005C8
:1020F0002068406900F001067DB176B100BF002084
:10210000009020680068009020684068009000BF40
:1021100000BFE06B40F00800E06320680068C0F397
:1021200040152068C06800F020061DB116B1204699
:1021300004F03CFB20680068C0F3C0152068C0684C
:1021400000F080061DB116B1204604F09FFC206807
:102150000068C0F380152068C06800F040061DB11B
:1021600016B1204604F00AFBE06B28B1012084F888
:1021700039002046FFF764FFF8BD10B504460CB9DE
:10218000012010BDA06900B100E000BF94F8390043
:1021900028B9002084F83800204600F025F80220F5
:1021A00084F839002068C06820F400502168C860B5
:1021B000204604F059FB2068006920F49040216813
:1021C00008612068406920F02A0021684861206881
:1021D000C06840F400502168C8600020E06301201E
:1021E00084F839000020CCE710B586B004462A49AF
:1021F000206888424DD100BF002000902748006829
:1022000040F00100254908600846006800F0010020
:10221000009000BF00BF00BF00200090084600688B
:1022200040F0010008600846006800F001000090DE
:1022300000BF00BF00BF00200090184814300068A5
:1022400040F010001549143108600846006800F09D
:102250001000009000BF00BF4815019002200290BE
:1022600001200390022004900720059001A90C484A
:10227000FEF760FB4FF48060019001A90848FEF76B
:1022800059FB2520FEF7ABFE032211462520FEF761
:10229000B3FE06B010BD000000100140303802400F
:1022A0000000024030B50346002493F83940012C69
:1022B00001D0122C37D101B10AB9012030BD00BFC5
:1022C00093F83800012801D10220F7E7012083F8B4
:1022D000380000BF99629A85DA850020D86393F8A8
:1022E0003900122803D1322083F8390002E022207D
:1022F00083F839001868C06840F480701D68E86091
:102300001868406940F001001D68686100BF002046
:1023100083F8380000BF1868C06840F020001D68CE
:10232000E8600020CAE70220C8E700001D4A0168F3
:10233000914236D11C49098801F4004189BB1A49F0
:10234000098801F4804171B1184909780A2903D03C
:102350000021154A118024E01349098841F4004105
:10236000114A11801DE0114909780D2906D10E4945
:10237000098841F480410C4A118012E00B49097828
:10238000094A1288C2F30D02094B9954064909887B
:10239000491C054A118011460988C72901DD002121
:1023A00011807047001001401C0000201E0000201A
:1023B00070010020704700BFFEE7000038B50446FA
:1023C0000748006818B1204601F0A6FF07E005485D
:1023D0000094438802880021084600F089F938BD3E
:1023E0001C010020C80200208B490872032842D13A
:1023F000898848F2525291420ED14FF4A071864A18
:102400001180F02151802C2151812A2191812B2191
:10241000D1816021D180FDE07F49898845F2084261
:1024200091420FD14FF4A0717B4A1180F02151806D
:1024300022215181202191812121D18141F2080164
:10244000D180E7E07449898845F210529142E2D187
:102450004FF44871704A11804FF4F07151804FF47D
:10246000305151814FF4285191814FF42C51D18139
:10247000A021D180CEE0042843D16749898848F261
:10248000525291420ED14FF4A071634A1180F02153
:1024900051802C2151812A2191812B21D181A02190
:1024A000D180B7E05C49898845F2084291420FD15A
:1024B0004FF4A071584A1180F0215180222151819E
:1024C000202191812121D18141F23801D180A1E0E7
:1024D0005149898845F2105291429CD14FF448717C
:1024E0004D4A11804FF4F07151804FF430515181B9
:1024F0004FF4285191814FF42C51D1816021D1802A
:1025000088E0012843D14449898848F252529142D7
:102510000ED1F021404A11804FF4A07151802C213E
:1025200051812A2191812B21D181C021D18071E05B
:102530003949898845F2084291420FD1F021364A43
:1025400011804FF4A071518022215181202191816D
:102550002121D1814FF48151D1805BE02E498988BE
:1025600045F21052914255D14FF4F0712A4A118030
:102570004FF4487151804FF4305151814FF428513C
:1025800091814FF42C51D181C021D18042E0224968
:10259000898848F2525291420ED1F0211E4A118090
:1025A0004FF4A07151802C2151812A2191812B213E
:1025B000D1810021D1802DE01749898845F2084258
:1025C00091420FD1F021144A11804FF4A071518033
:1025D00022215181202191812121D18141F21001BB
:1025E000D18017E00C49898845F21052914211D1EF
:1025F0004FF4F071084A11804FF4487151804FF444
:10260000305151814FF4285191814FF42C51D18197
:102610000021D18070470000C802002070B5044638
:102620000D4616462F48006828B1324629462046F6
:1026300001F0C6FE70BD2C48808848F25251884295
:1026400014D12949888901F01DFE201201F00EFEE7
:10265000E0B201F00BFE2449C88901F013FE2812F4
:1026600001F004FEE8B201F001FE32E01E4880886D
:1026700045F20841884206D101231A4629462046E0
:1026800001F0F2FB25E01848808845F2105188429D
:102690001FD11549888901F0F5FD201201F0E6FDF2
:1026A00011498989491C88B201F0ECFDE0B201F0C2
:1026B000DDFD0D49C88901F0E5FD281201F0D6FDC8
:1026C0000949C989491C88B201F0DCFDE8B201F072
:1026D000CDFD0548408905490880891C0E8000BF52
:1026E000A8E700001C010020C8020020FEFF0160D6
:1026F0002DE9FC5F04460D4616461F46DDF8309076
:102700000020019083462948006840B13B4632468C
:1027100029462046CDF8009001F020FF44E02448EF
:10272000808845F2084188421FD1781B83B2301B54
:1027300082B22946204601F097FB01F0DBFD4FF005
:10274000000B05E01FFA89F001F0CEFD0BF1010B43
:10275000781B311B48435845F4D8154843880288F4
:102760000021084601F080FB1EE0301B401C80B2B7
:102770000190A84616E04146204601F01DFB01F0FD
:10278000B9FD4FF0000A06E00A49A1F800900AF1ED
:1027900001001FFA80FA01988245F5DB08F101007B
:1027A0001FFA80F8B845E6DDBDE8FC9F1C0100205B
:1027B000C80200200000026000B587B000BF002002
:1027C00001902448006840F0010022490860084652
:1027D000006800F00100019000BF00BF00BF0020B2
:1027E00001900846006840F0040008600846006850
:1027F00000F00400019000BF00BF072002900120FC
:10280000039004900320059002A91348FEF792F864
:102810004420029002A91148FEF78CF801221146CB
:102820000D48FEF79DF9012202210B48FEF798F9A9
:10283000012204210848FEF793F9012204210748E8
:10284000FEF78EF9002240210448FEF789F907B00F
:1028500000BD000030380240000002400008024085
:1028600000B595B000BF00200190FE48006840F020
:102870000200FC4908600846006800F00200019070
:1028800000BF00BF00BF002001900846006840F074
:10289000040008600846006800F00400019000BFD2
:1028A00000BF4020029000200390022004900320EB
:1028B000059002A9EC48FEF73DF84FF480700290B5
:1028C00002A9EA48FEF736F84FF48071E748FEF7B0
:1028D0003FF988B94021E448FEF73AF920B14FF4B6
:1028E0000040E349888003E047F21600E049888011
:1028F00001F0E2FF01F01EBA4FF02040DD49086010
:10290000DD484860002088600021DA48C16001612C
:102910001021416100218161C16141624FF4805108
:1029200081620021C1624FF4804101630021416353
:1029300081634FF48011C1630F200E9000200F902F
:10294000462010900020149004200790002008904A
:102950000420099000200D9007AA0EA9C548FFF792
:102960008CFA0A2004F0FDF800224FF40061C348FD
:10297000FEF7F6F80A2004F0F4F801221021C0480E
:10298000FEF7EEF80A2004F0ECF8042001F008FA53
:1029900001F0FCF9B649888001F0F8F9B449888063
:1029A000084680884FF6FF7101EA0020B049888010
:1029B00001F0ECF9AE4989880843AD4988800846A2
:1029C000808848F25251884248D0002001F0E8F94E
:1029D000A74988800846808845F2084188423DD052
:1029E0004FF4704001F04EFC552001F03FFC4FF2D7
:1029F000010001F047FCAA2001F038FC4FF2020070
:102A000001F040FC522001F031FC4FF2030001F0D4
:102A100039FC082001F02AFC4FF2040001F032FCDE
:102A2000012001F023FC4FF4454001F0B9F901F019
:102A3000ADF98F498880084680884FF6FF7101EA1A
:102A400000208B4988804CF2015001F0A9F901F077
:102A50009DF987498988084385498880844880880A
:102A600048F2525188427CD1112001F00BFC7820B1
:102A700004F077F8362001F005FC002001F0F6FBA9
:102A80003A2001F0FFFB052001F0F0FBB22001F03D
:102A9000F9FB0C2001F0EAFB0C2001F0E7FB002021
:102AA00001F0E4FB332001F0E1FB332001F0DEFB19
:102AB000B72001F0E7FB352001F0D8FBBB2001F087
:102AC000E1FB282001F0D2FBC02001F0DBFB2C2031
:102AD00001F0CCFBC22001F0D5FB012001F0C6FBC8
:102AE000C32001F0CFFB0B2001F0C0FBC42001F09C
:102AF000C9FB202001F0BAFBC62001F0C3FB0F2068
:102B000001F0B4FBD02001F0BDFBA42001F0AEFB2E
:102B1000A12001F0ABFBE02001F0B4FBD02001F0DC
:102B2000A5FB012001F0A2FB082001F09FFB0F2074
:102B300001F09CFB112001F099FB2A2001F096FB8B
:102B4000362001F093FB552001F090FB442001F06A
:102B50008DFB3A2001F08AFB0B2001F087FB062059
:102B600000E04DE001F082FB112001F07FFB20200E
:102B700001F07CFBE12001F085FBD02001F076FB29
:102B8000022001F073FB072001F070FB0A2001F026
:102B90006DFB0B2001F06AFB182001F067FB34206D
:102BA00001F064FB432001F061FB4A2001F05EFB71
:102BB0002B2001F05BFB1B2001F058FB1C2001F0D7
:102BC00055FB222001F052FB1F2001F04FFB292072
:102BD00001F058FB2C2001F055FB0420FFF704FC0A
:102BE000362001F04FFB2249C88801F03FFB204806
:102BF000438802880021084601F036F901F089B8BF
:102C00001B48808845F2084188427DD14FF480718D
:102C1000012001F079FB4FF4E061022001F074FB28
:102C200041F23001032001F06FFB0021042001F08C
:102C30006BFB40F20221082001F066FB0021092015
:102C400001F062FB00210A2001F05EFB00210C2054
:102C500001F05AFB00210D2001F056FB00210F204E
:102C600010E000003038024000080240000402403A
:102C7000C802002078020020040100A0000C0240DD
:102C8000001C024001F040FB0021102001F03CFB41
:102C90000021112001F038FB0021122001F034FB4B
:102CA0000021132001F030FBC82003F05AFF072158
:102CB000112001F029FB322003F053FF41F2B02133
:102CC000102001F021FB322003F04BFF40F2BD1138
:102CD000122001F019FB322003F043FF4FF4A05102
:102CE000132001F011FB0E21292001F00DFB3220F1
:102CF00003F037FF0021202001F006FB40F23F11D6
:102D0000212001F001FB00E0B3E040F60D3130205E
:102D100001F0FAFA41F62311312001F0F5FA41F6FB
:102D20002641322001F0F0FA42F21C61332001F01A
:102D3000EBFA42F21941342001F0E6FA40F60B5169
:102D4000352001F0E1FA41F20601362001F0DCFA0B
:102D50004FF4C261372001F0D7FA40F206713820F3
:102D600001F0D2FA4FF44171392001F0CDFA40F66A
:102D700005613A2001F0C8FA40F601613B2001F0FC
:102D8000C3FA4FF487713C2001F0BEFA40F20E51B5
:102D90003D2001F0B9FA40F203413E2001F0B4FABF
:102DA00040F207613F2001F0AFFA0021502001F00E
:102DB000ABFAEF21512001F0A7FA0021522001F0D7
:102DC000A3FA40F23F11532001F09EFA4FF427413D
:102DD000602001F099FA0121612001F095FA0021AB
:102DE0006A2001F091FA0021802001F08DFA002183
:102DF000812001F089FA0021822001F085FA00216A
:102E0000832001F081FA0021842001F07DFA002165
:102E1000852001F079FA1021902001F075FA002147
:102E2000922001F071FA0321932001F06DFA4FF422
:102E30008871952001F068FA0021972001F064FA6A
:102E40000021982001F060FA0420FFF7CDFAFE4837
:102E5000C188032001F058FA4FF48971072001F06E
:102E600053FAF948438802880021084600F0FCFF25
:102E7000C4E6F548808845F210518842F8D13220E6
:102E800003F06FFE55214FF4704001F03DFAAA2186
:102E90004FF2010001F038FA52214FF2020001F026
:102EA00033FA08214FF2030001F02EFA01214FF20C
:102EB000040001F029FA86214BF6014001F024FAC2
:102EC0006A214BF6024001F01FFA86214BF60150B1
:102ED00001F01AFA6A214BF6025001F015FA672147
:102EE0004BF6016001F010FA00214FF4514001F05F
:102EF0000BFA5D214DF2011001F006FA00214DF2AE
:102F0000021001F001FA6B214DF2031001F0FCF9FF
:102F100000214DF2041001F0F7F984214DF2051063
:102F200001F0F2F900214DF2061001F0EDF99C21BB
:102F30004DF2071001F0E8F900214DF2081001F000
:102F4000E3F9B1214DF2091001F0DEF900214DF253
:102F50000A1001F0D9F9D9214DF20B1001F0D4F982
:102F600000214DF20C1001F0CFF9FD214DF20D10B2
:102F700001F0CAF901214DF20E1001F0C5F9382116
:102F80004DF20F1001F0C0F901214DF2101001F0C7
:102F9000BBF968214DF2111001F0B6F901214DF293
:102FA000121001F0B1F9B9214DF2131001F0ACF992
:102FB00001214DF2141001F0A7F9FB214DF215107B
:102FC00001F0A2F902214DF2161001F09DF96321E2
:102FD0004DF2171001F098F902214DF2181001F08E
:102FE00093F9B9214DF2191001F08EF902214DF239
:102FF0001A1001F089F9BB214DF21B1001F084F980
:1030000003214DF21C1001F07FF903214DF21D1038
:1030100001F07AF903214DF21E1001F075F94621F5
:103020004DF21F1001F070F903214DF2201001F054
:103030006BF969214DF2211001F066F903214DF27F
:10304000221001F061F98F214DF2231001F05CF99B
:1030500003214DF2241001F057F9A4214DF225105F
:1030600001F052F903214DF2261001F04DF9B9217A
:103070004DF2271001F048F903214DF2281001F01C
:1030800043F9C7214DF2291001F03EF903214DF219
:103090002A1001F039F9C9214DF22B1001F034F951
:1030A00003214DF22C1001F02FF9CB214DF22D1000
:1030B00001F02AF903214DF22E1001F025F9CB2160
:1030C0004DF22F1001F020F903214DF2301001F0E4
:1030D0001BF9CB214DF2311001F016F903214DF20D
:1030E000321001F011F9CC214DF2331001F00CF93E
:1030F00000214FF4524001F007F95D214DF201200B
:1031000001F002F900214DF2022001F0FDF86B21DF
:103110004DF2032001F0F8F800214DF2042001F0F7
:10312000F3F884214DF2052001F0EEF800214DF274
:10313000062001F0E9F89C214DF2072001F0E4F8A7
:1031400000214DF2082001F0DFF8B1214DF20920F5
:1031500001F0DAF800214DF20A2001F0D5F8D9216A
:103160004DF20B2001F0D0F800214DF20C2001F0BF
:10317000CBF8FD214DF20D2001F0C6F801214DF2F2
:103180000E2001F0C1F838214DF20F2001F0BCF8FB
:1031900001214DF2102001F0B7F868214DF2112005
:1031A00001F0B2F801214DF2122001F0ADF8B92181
:1031B0004DF2132001F0A8F801214DF2142001F086
:1031C000A3F8FB214DF2152001F09EF802214DF2EB
:1031D000162001F099F863214DF2172001F094F8C0
:1031E00002214DF2182001F08FF8B9214DF219207B
:1031F00001F08AF802214DF21A2001F085F8BB2176
:103200004DF21B2001F080F803214DF21C2001F04B
:103210007BF803214DF21D2001F076F803214DF2D9
:103220001E2001F071F846214DF21F2001F06CF8CC
:1032300003214DF2202001F067F869214DF2212091
:1032400001F062F8032101E0C80200204DF22220C3
:1032500001F05AF88F214DF2232001F055F8032197
:103260004DF2242001F050F8A4214DF2252001F068
:103270004BF803214DF2262001F046F8B9214DF21A
:10328000272001F041F803214DF2282001F03CF8FD
:10329000C7214DF2292001F037F803214DF22A20F1
:1032A00001F032F8C9214DF22B2001F02DF8032155
:1032B0004DF22C2001F028F8CB214DF22D2001F009
:1032C00023F803214DF22E2001F01EF8CB214DF200
:1032D0002F2001F019F803214DF2302001F014F8ED
:1032E000CB214DF2312001F00FF803214DF23220B5
:1032F00001F00AF8CC214DF2332001F005F800214D
:103300004FF4534001F000F85D214DF2013000F020
:10331000FBFF00214DF2023000F0F6FF6B214DF271
:10332000033000F0F1FF00214DF2043000F0ECFF1B
:1033300084214DF2053000F0E7FF00214DF2063008
:1033400000F0E2FF9C214DF2073000F0DDFF00218C
:103350004DF2083000F0D8FFB1214DF2093000F0F5
:10336000D3FF00214DF20A3000F0CEFFD9214DF2FB
:103370000B3000F0C9FF00214DF20C3000F0C4FF0B
:10338000FD214DF20D3000F0BFFF01214DF20E3056
:1033900000F0BAFF38214DF20F3000F0B5FF0121E7
:1033A0004DF2103000F0B0FF68214DF2113000F006
:1033B000ABFF01214DF2123000F0A6FFB9214DF212
:1033C000133000F0A1FF01214DF2143000F09CFFFA
:1033D000FB214DF2153000F097FF02214DF216301F
:1033E00000F092FF63214DF2173000F08DFF0221B3
:1033F0004DF2183000F088FFB9214DF2193000F07D
:1034000083FF02214DF21A3000F07EFFBB214DF206
:103410001B3000F079FF03214DF21C3000F074FFE7
:1034200003214DF21D3000F06FFF03214DF21E30DD
:1034300000F06AFF46214DF21F3000F065FF0321C6
:103440004DF2203000F060FF69214DF2213000F094
:103450005BFF03214DF2223000F056FF8F214DF229
:10346000233000F051FF03214DF2243000F04CFFD7
:10347000A4214DF2253000F047FF03214DF2263004
:1034800000F042FFB9214DF2273000F03DFF03214B
:103490004DF2283000F038FFC7214DF2293000F0FE
:1034A00033FF03214DF22A3000F02EFFC9214DF2E7
:1034B0002B3000F029FF03214DF22C3000F024FFC7
:1034C000CB214DF22D3000F01FFF03214DF22E30A5
:1034D00000F01AFFCB214DF22F3000F015FF032131
:1034E0004DF2303000F010FFCB214DF2313000F0C2
:1034F0000BFF03214DF2323000F006FFCC214DF2DC
:10350000333000F001FF00214FF4544000F0FCFE86
:103510005D214DF2014000F0F7FE00214DF2024026
:1035200000F0F2FE6B214DF2034000F0EDFE0021B1
:103530004DF2044000F0E8FE84214DF2054000F019
:10354000E3FE00214DF2064000F0DEFE9C214DF22C
:10355000074000F0D9FE00214DF2084000F0D4FEF3
:10356000B1214DF2094000F0CFFE00214DF20A409A
:1035700000F0CAFED9214DF20B4000F0C5FE00213B
:103580004DF20C4000F0C0FEFD214DF20D4000F068
:10359000BBFE01214DF20E4000F0B6FE38214DF287
:1035A0000F4000F0B1FE01214DF2104000F0ACFEE2
:1035B00068214DF2114000F0A7FE01214DF21240AA
:1035C00000F0A2FEB9214DF2134000F09DFE012152
:1035D0004DF2144000F098FEFB214DF2154000F032
:1035E00093FE02214DF2164000F08EFE63214DF253
:1035F000174000F089FE02214DF2184000F084FED1
:10360000B9214DF2194000F07FFE02214DF21A401F
:1036100000F07AFEBB214DF21B4000F075FE032145
:103620004DF21C4000F070FE03214DF21D4000F0F1
:103630006BFE03214DF21E4000F066FE46214DF266
:103640001F4000F061FE03214DF2204000F05CFEBF
:1036500069214DF2214000F057FE03214DF2224036
:1036600000F052FE8F214DF2234000F04DFE032169
:103670004DF2244000F048FEA4214DF2254000F018
:1036800043FE03214DF2264000F03EFEB9214DF2EB
:10369000274000F039FE03214DF2284000F034FEAF
:1036A000C7214DF2294000F02FFE03214DF22A40A0
:1036B00000F02AFEC9214DF22B4000F025FE032127
:1036C0004DF22C4000F020FECB214DF22D4000F0B9
:1036D0001BFE03214DF22E4000F016FECB214DF2D1
:1036E0002F4000F011FE03214DF2304000F00CFE9F
:1036F000CB214DF2314000F007FE03214DF2324064
:1037000000F002FECC214DF2334000F0FDFD00211F
:103710004FF4554000F0F8FD5D214DF2015000F0EE
:10372000F3FD00214DF2025000F0EEFD6B214DF251
:10373000035000F0E9FD00214DF2045000F0E4FDDB
:1037400084214DF2055000F0DFFD00214DF20650BE
:1037500000F0DAFD9C214DF2075000F0D5FD00216C
:103760004DF2085000F0D0FDB1214DF2095000F0AB
:10377000CBFD00214DF20A5000F0C6FDD9214DF2DB
:103780000B5000F0C1FD00214DF20C5000F0BCFDCB
:10379000FD214DF20D5000F0B7FD01214DF20E500C
:1037A00000F0B2FD38214DF20F5000F0ADFD0121C7
:1037B0004DF2105000F0A8FD68214DF2115000F0BC
:1037C000A3FD01214DF2125000F09EFDB9214DF2F2
:1037D000135000F099FD01214DF2145000F094FDBA
:1037E000FB214DF2155000F08FFD02214DF21650D5
:1037F00000F08AFD63214DF2175000F085FD022193
:103800004DF2185000F080FDB9214DF2195000F032
:103810007BFD02214DF21A5000F076FDBB214DF2E6
:103820001B5000F071FD03214DF21C5000F06CFDA7
:1038300003214DF21D5000F067FD03214DF21E5093
:1038400000F062FD46214DF21F5000F05DFD0321A6
:103850004DF2205000F058FD69214DF2215000F04A
:1038600053FD03214DF2225000F04EFD8F214DF209
:10387000235000F049FD03214DF2245000F044FD97
:10388000A4214DF2255000F03FFD03214DF22650BA
:1038900000F03AFDB9214DF2275000F035FD03212B
:1038A0004DF2285000F030FDC7214DF2295000F0B4
:1038B0002BFD03214DF22A5000F026FDC9214DF2C7
:1038C0002B5000F021FD03214DF22C5000F01CFD87
:1038D000CB214DF22D5000F017FD03214DF22E505B
:1038E00000F012FDCB214DF22F5000F00DFD032111
:1038F0004DF2305000F008FDCB214DF2315000F078
:1039000003FD03214DF2325000F0FEFCCC214DF2BC
:10391000335000F0F9FC00214FF4564000F0F4FC65
:103920005D214DF2016000F0EFFC00214DF20260DC
:1039300000F0EAFC6B214DF2036000F0E5FC002191
:103940004DF2046000F0E0FC84214DF2056000F0CF
:10395000DBFC00214DF2066000F0D6FC9C214DF20C
:10396000076000F0D1FC00214DF2086000F0CCFCB3
:10397000B1214DF2096000F0C7FC00214DF20A6050
:1039800000F0C2FCD9214DF20B6000F0BDFC00211B
:103990004DF20C6000F0B8FCFD214DF20D6000F01E
:1039A000B3FC01214DF20E6000F0AEFC38214DF267
:1039B0000F6000F0A9FC01214DF2106000F0A4FCA2
:1039C00068214DF2116000F09FFC01214DF2126060
:1039D00000F09AFCB9214DF2136000F095FC012132
:1039E0004DF2146000F090FCFB214DF2156000F0E8
:1039F0008BFC02214DF2166000F086FC63214DF233
:103A0000176000F081FC02214DF2186000F07CFC90
:103A1000B9214DF2196000F077FC02214DF21A60D5
:103A200000F072FCBB214DF21B6000F06DFC032125
:103A30004DF21C6000F068FC03214DF21D6000F0A7
:103A400063FC03214DF21E6000F05EFC46214DF246
:103A50001F6000F059FC03214DF2206000F054FC7F
:103A600069214DF2216000F04FFC03214DF22260EC
:103A700000F04AFC8F214DF2236000F045FC032149
:103A80004DF2246000F040FCA4214DF2256000F0CE
:103A90003BFC03214DF2266000F036FCB9214DF2CB
:103AA000276000F031FC03214DF2286000F02CFC6F
:103AB000C7214DF2296000F027FC03214DF22A6056
:103AC00000F022FCC9214DF22B6000F01DFC032107
:103AD0004DF22C6000F018FCCB214DF22D6000F06F
:103AE00013FC03214DF22E6000F00EFCCB214DF2B1
:103AF0002F6000F009FC03214DF2306000F004FC5F
:103B0000CB214DF2316000F0FFFB03214DF232601A
:103B100000F0FAFBCC214DF2336000F0F5FB2421DC
:103B20004FF43A4000F0F0FB24214BF6012000F066
:103B3000EBFB24214BF6022000F0E6FB24214FF49E
:103B4000394000F0E1FB24214BF6011000F0DCFBD2
:103B500024214BF6021000F0D7FB55214FF47040A2
:103B600000F0D2FBAA214FF2010000F0CDFB522160
:103B70004FF2020000F0C8FB08214FF2030000F0F2
:103B8000C3FB00214FF2040000F0BEFBCC214FF438
:103B9000314000F0B9FB05214FF43C4000F0B4FB8C
:103BA00005214BF6014000F0AFFB05214BF602402A
:103BB00000F0AAFB01214FF4384000F0A5FB0321DF
:103BC0004BF6010000F0A0FB03214BF6020000F0D1
:103BD0009BFB03214BF6030000F096FB07214BF6FD
:103BE000025000F091FB31214BF6035000F08CFBAA
:103BF00007214BF6026000F087FB31214BF6036092
:103C000000F082FB07214BF6027000F07DFB3121B2
:103C10004BF6037000F078FBAA214FF47F4000F0D0
:103C200073FB55214FF6017000F06EFB25214FF616
:103C3000027000F069FB01214FF6037000F064FB95
:103C400011214FF2043000F05FFB10214FF20630DB
:103C500000F05AFB00214FF2083000F055FB002124
:103C60004FF4545000F050FB55214FF4685000F0D1
:103C70004BFB00214FF4285000F046FB002142F698
:103C8000012000F041FB012142F6022000F03CFB44
:103C9000DF2142F6032000F037FB00214FF42C50C7
:103CA00000F032FB002142F6013000F02DFB032131
:103CB00042F6023000F028FB1F2142F6033000F0EC
:103CC00023FB4FF4885000F0DDFA0A2002F049FF90
:103CD0004FF4245000F0D6FA052002F042FF55219F
:103CE0004FF4685000F010FB60214FF4585000F082
:103CF0000BFB0420FEF778FB2148C1884FF4585095
:103D000000F002FB1E48438802880021084600F0AC
:103D1000ABF81B48808845F21051884203D101203E
:103D20001849086002E00020164908604FF6FF704D
:103D3000FEF744FB1248808848F25251884205D071
:103D40000F48808845F20841884203D110200E496F
:103D5000087013E00A48808845F2105188420AD062
:103D600007488088B0F5004F05D00548808847F2A5
:103D70001601884202D118200349087015B000BD11
:103D8000C8020020A08240422400002008B5034859
:103D900000880090BDF8000008BD0000000002602F
:103DA00010B50446204600F06DFA052002F0E5FE4D
:103DB000FFF7ECFF10BD000030B504460D46294862
:103DC000808848F25251884214D12649888900F0EF
:103DD00059FA201200F04AFAE0B200F047FA2149FD
:103DE000C88900F04FFA281200F040FAE8B200F05B
:103DF0003DFA36E01B48808845F2084188420AD1E6
:103E000018498889214600F07FFA1649C889294651
:103E100000F07AFA25E01348808845F21051884274
:103E20001FD11049888900F02DFA201200F01EFAE7
:103E30000C498989491C88B200F024FAE0B200F0EC
:103E400015FA0849C88900F01DFA281200F00EFA88
:103E50000449C989491C88B200F014FAE8B200F09C
:103E600005FA30BDC80200202DE9FC4F04460D467E
:103E7000904699460026B2460027B346002001909E
:103E800000908A48808848F25251884232D12646B2
:103E900004EB0800401E1FFA80FA2F4605EB0900CC
:103EA000401E1FFA80FB019600978049888900F028
:103EB000E9F9301200F0DAF9F0B200F0D7F94FEA80
:103EC0002A2000F0D3F90AF0FF0000F0CFF977497B
:103ED000C88900F0D7F9381200F0C8F9F8B200F03C
:103EE000C5F94FEA2B2000F0C1F90BF0FF0000F0FC
:103EF000BDF9D5E06D48808845F20841884273D10C
:103F00006A48007A03281CD168484088401BA0EB0F
:103F1000090086B265484088401B401E1FFA80FA9F
:103F200062480088001BA0EB080087B25F48008849
:103F3000001B401E1FFA80FBCDF804A0CDF800B096
:103F400040E05A48007A04280ED12E4605EB0900BD
:103F5000401E1FFA80FA274604EB0800401E1FFA95
:103F600080FB019600972DE05048007A012814D17B
:103F70004E480088001BA0EB080086B24B48008822
:103F8000001B401E1FFA80FA2F4605EB09001FFA9E
:103F900080FBCDF804A0009714E0264604EB08004F
:103FA000401E1FFA80FA41484088401BA0EB0900E0
:103FB00087B23E484088401B401E1FFA80FB019696
:103FC000CDF800B03146502000F09EF95146512006
:103FD00000F09AF93946522000F096F959465320DC
:103FE00000F092F95CE0FFE73048808845F210511C
:103FF000884255D1264604EB0800401E1FFA80FA7D
:104000002F4605EB0900401E1FFA80FB0196009722
:104010002649888900F036F9301200F027F9234943
:104020008989491C88B200F02DF9F0B200F01EF920
:104030001E498989891C88B200F024F94FEA2A2098
:1040400000F014F919498989C91C88B200F01AF9DD
:104050000AF0FF0000F00AF91449C88900F012F9CB
:10406000381200F003F91149C989491C88B200F0DF
:1040700009F9F8B200F0FAF80C49C989891C88B22C
:1040800000F000F94FEA2B2000F0F0F80749C98949
:10409000C91C88B200F0F6F80BF0FF0000F0E6F85B
:1040A000DDE90010FFF788FEBDE8FC8FC8020020A4
:1040B0002DE9F84F80460F4616461C46BB46204663
:1040C000E31704EB5373DB1021464FEAE47C04EB67
:1040D0005C7C4FEAEC0CA4EBCC0CBCF1000F02D0E2
:1040E0004FF0010C01E04FF0000C6344224604EB5A
:1040F000D27C4FEA6C0C03FB0CF3DBB20093A6F10D
:104100002000C6B200255EE00C2C07D106EB46006D
:104110002F4901EB800010F805901BE0102C05D111
:104120002C4800EB061010F8059013E0182C07D16E
:1041300006EBC600284901EB800010F8059009E065
:10414000202C05D1254800EBC61010F8059001E0A1
:10415000BDE8F88F4FF0000A2FE009F0800030B181
:104160001F48394602684046FEF758FA07E00A98A9
:1041700028B91C48394602684046FEF74FFA4FEA14
:1041800049604FEA1069781C87B217484088B842E6
:1041900000DCDDE7A7EB0B00A0420AD15F4608F187
:1041A00001001FFA80F810480088404500DCCFE786
:1041B00006E00AF1010000F0FF0ABAF1080FCCDBBB
:1041C00000BF681CC5B2009885429DDB00BFBFE7F9
:1041D0001A6E00088E7200087E780008DA850008E2
:1041E000280000202C000020C80200202DE9F84FF4
:1041F00005460E4690469946DDE90A4705F0FF0A56
:1042000008EB05001FFA80F809EB06001FFA80F999
:1042100021E0454502DB5546301986B24E4500DBAC
:104220001FE004EBD47105EB61010F4A1288914243
:1042300002DD0025301986B2002000903A7823462E
:1042400031462846FFF734FF204604EBD07105EBDA
:1042500061018DB27F1C38787E2802DC38782028F6
:10426000D7DA00BFBDE8F88FC802002001B5BDF85D
:1042700000000090BDF800000149088008BD000062
:104280000000026001B5BDF800000090BDF800001C
:104290000149088008BD0000FEFF016070B50546B9
:1042A000072419E04FF480200D4908600120A04048
:1042B000284018B102200B49886103E04FF4003018
:1042C00008498861012002F058FC04200449086074
:1042D000012002F052FC641E002CE3DA70BD0000E5
:1042E00018080240000002400149088070470000A1
:1042F00000000260024840890249088070470000BF
:10430000C8020020FEFF0160024A1080921C11804A
:1043100070470000FEFF016018B50446064800948F
:10432000008B401E83B20448C08A401E82B2002126
:10433000084600F013F918BD1C01002070B58CB0C0
:1043400004460E46154608200090049406960995EA
:104350006846FCF7F5FE10B900200CB070BD0120D6
:10436000FBE700001449487514490872022801D07F
:1043700001280ED1104989880F4AD1821146098837
:1043800011831146C98A0D4A11800B49098B51804E
:1043900011E0032801D004280DD107490988064AF5
:1043A000D1821146898811831146C98A034A118036
:1043B0000149098B518070471C010020C802002070
:1043C00070B5634B5B7D042B2CD1624B9B8847F20D
:1043D0001604A34210D15E4B1D685B685B1A5B1E1E
:1043E00005FB03035A4DED696B43594D2D7D5A4E24
:1043F00056F82550EA52A9E0564B9B88B3F5004F7A
:10440000F9D1534B5D681B681B1A5B1E05FB031338
:104410004F4DED696B434E4D2D7D4F4E56F8255057
:10442000EA5293E04A4B5B7D032B2ED1494B9B888C
:1044300047F21604A34211D1454B1B681B1A5B1EA1
:10444000434D2D6805FB0133414DED696B43404DF4
:104450002D7D414E56F82550EA5277E03D4B9B8822
:10446000B3F5004F72D13A4B5B685B1A5B1E384D57
:104470006D6805FB0033364DED696B43344D2D7D82
:10448000354E56F82550EA5260E0314B5B7D012BEA
:104490002ED1304B9B8847F21604A34215D195B21A
:1044A0002B4B1B685B1A5B1E294C26686468241A18
:1044B000641E06FB0433264CE4696343244C247DCC
:1044C000254E56F82440E55240E0224B9B88B3F538
:1044D000004F3BD11E4BDB691D4D6D6805FB01058F
:1044E0006B431B4D2D7D1C4E56F82550EA522DE096
:1044F000184B9B8847F21604A3420DD1144BDB697D
:10450000134D2D6805FB00156B43114D2D7D124E8B
:1045100056F82550EA5219E00E4B9B88B3F5004F30
:1045200014D195B20A4B5B681B1A5B1E084C666877
:104530002468641A641E06FB0433054CE469634373
:10454000034C247D044E56F82440E55270BD000013
:104550001C010020C8020020140000202DE9F84FA3
:1045600004460D4616464FF0000EDFF8389399F8D2
:104570001590B9F1040F34D1DFF82C93B9F80490F9
:10458000B9F5004F12D12846DFF81893D9F80090FA
:10459000A9EB0609A9F101011A46DFF80893D9F839
:1045A0000090A9EB0409A9F10107C6E0DFF8F89231
:1045B000B9F8049047F2160AD145F6D12046DFF843
:1045C000E492D9F80490A9EB0309A9F1010132465C
:1045D000DFF8D092D9F80490A9EB0509A9F10107F9
:1045E000ABE0DFF8C09299F81590B9F1030F34D120
:1045F000DFF8B492B9F80490B9F5004F12D1DFF8A2
:10460000A492D9F80490A9EB0309A9F1010021466D
:10461000DFF89092D9F80490A9EB0509A9F10102FD
:1046200037468AE0DFF88092B9F8049047F2160A1C
:10463000D14511D1DFF86C92D9F80090A9EB0609A9
:10464000A9F101002946DFF85C92D9F80090A9EBA6
:104650000409A9F101021F466FE0DFF8489299F8BA
:104660001590B9F1010F34D1DFF83C92B9F80490FC
:10467000B9F5004F04D12046294632461F465CE07A
:10468000DFF82492B9F8049047F2160AD14554D1C4
:10469000DFF81092D9F80090A9EB0309A9F1010005
:1046A000DFF80092D9F80490A9EB0609A9F10101FD
:1046B000DFF8F091D9F80090A9EB0509A9F1010202
:1046C000DFF8E091D9F80490A9EB0409A9F10107FA
:1046D00033E0DFF8D491B9F80490B9F5004F20D158
:1046E000DFF8C091D9F80490A9EB0609A9F10100FF
:1046F000DFF8B091D9F80090A9EB0309A9F1010105
:10470000DFF8A091D9F80490A9EB0409A9F10102FE
:10471000DFF89091D9F80090A9EB0509A9F10107FC
:104720000BE0DFF88491B9F8049047F2160AD145FE
:1047300003D1284621461A463746DFF86C91B9F86E
:104740000490B9F5004F20D1DFF85891B9F80490E2
:10475000A2EB000A0AF1010AA9EB0A091FFA89FC77
:10476000DFF8409199F81490DFF840A15AF82990A9
:10477000DFF830A1DAF81CA0DFF828B1DBF804B0CC
:104780000BFB010B0AFB0B9827E0DFF81C91B9F833
:10479000049047F2160AD1451FD1DFF80891B9F805
:1047A0000090A2EB000A0AF1010AA9EB0A091FFA1C
:1047B00089FCDFF8F09099F81490DFF8F0A05AF82F
:1047C0002990DFF8E0A0DAF81CA0DFF8D8B0DBF819
:1047D00000B00BFB010B0AFB0B9800BF4FF0000968
:1047E000CDF80090DFF8C890D9F8009049F400099E
:1047F000DFF8BCA0CAF80090D146D9F8009009F4BF
:104800000009CDF8009000BF00BFDFF8A890D9F8EC
:10481000009029F00109DFF89CA0CAF800904FF43D
:104820004039CAF800904FF00209CAF83490D146D6
:10483000C9F840C0C9F83C80A7EB010909F101099A
:10484000A2EB000A0AF1010A49EA0A49DFF864A06A
:10485000CAF84490DDF82890CAF83890D146D9F8C3
:10486000009049F00109CAF8009005E00EF1010E30
:10487000BEF5001F00D308E0DFF83890D9F80490A7
:1048800009F00209B9F1000FF0D000BFDFF8249061
:10489000D9F8089049F00209DFF818A0CAF8089082
:1048A000BDE8F88F1C010020C80200201400002081
:1048B0003038024000B002401FB50024A948848867
:1048C000B4F5004F19D100F0C0FA4FF44870A64972
:1048D00008604FF4F07048600120088148810A2088
:1048E0008881C88108822B2048824FF480320321BE
:1048F0004FF4B470FFF722FD1DE047F2160084422A
:1049000019D14FF48060984908604FF416704860E0
:1049100014200881032048818C2088811420C881BC
:10492000A02008820C2048824FF4803202214FF4EC
:10493000B470FFF703FD8C4800888A4908808A48D4
:104940008088488002208849C86188488849086072
:10495000B4F5004F7CD18748874908600020486043
:10496000002185488160C1604FF0805101617E481F
:104970000089401E804948617B484089401E88610B
:1049800079480089784989890844401E7A49C86174
:10499000754840897449C9890844401E76490862AF
:1049A000714800897049898908446F4949680844F9
:1049B000401E714948626C4840896B49C989084466
:1049C000694909680844401E6B4988626648008945
:1049D0006549898908446449496808446249098AE3
:1049E0000844401E6449C8625F4840895E49C989DD
:1049F00008445D49096808445B49498A0844401EE7
:104A00005D49086300215C4880F8361080F8351055
:104A100080F83410FCF718F9002007210622CDE9B0
:104A20000002CDE902105248FF2302220168002053
:104A300000F0A6F84C48008880B200904A48808870
:104A400083B200221146104600F0D8F87DE0FFE75F
:104A500047F21600844278D1464847490860002052
:104A60004860002144488160C16001613E4800897E
:104A7000401E414948613C484089401E88613A488F
:104A80000089394989890844401E3B49C861364834
:104A900040893549C9890844401E3749086232486F
:104AA00000893149898908442F4909680844401E12
:104AB000314948622C4840892B49C98908442A4910
:104AC00049680844401E2C498862274800892649C5
:104AD000898908442449096808442349098A084403
:104AE000401E2549C862204840891F49C989084499
:104AF0001D49496808441C49498A0844401E1E490A
:104B0000086300211C4880F8361080F8351080F8C2
:104B10003410FCF799F8002007210622CDE90002A5
:104B2000CDE902101248FF2302220168002000F0A4
:104B300027F80D48808880B200900B48008883B227
:104B400000221146104600F059F80420FFF70AFC35
:104B5000002000F06BF8012008490860801EFFF774
:104B6000DBFB1FBDC80200201C010020000000C0AC
:104B700014000020006801403400002098024142E7
:104B80002DE9F04F8DB005460E4617469846DDE9F3
:104B900017ABDDF85890199C002000900290154842
:104BA000006801901348406803900497CDF8148082
:104BB000CDF818904FEA0A2007904FEA0B20089092
:104BC00009960C4800680A900A4840680B9000203B
:104BD00001148DF8321001128DF83110E0B28DF809
:104BE00030002A4669460448FBF7FEFF0DB0BDE8D9
:104BF000F08F00001C010020340000202DE9F0415E
:104C000004460E4617461D46DDF8188023463A46F0
:104C100031460548FCF76EF92346424629460248CC
:104C2000FCF79EF9BDE8F0813400002001490875C9
:104C3000704700001C010020F0B50023002400256F
:104C40008E880768FF68C7F30B473E443304066845
:104C50008436802707FB0266766806F4704706688C
:104C600084364FF0800C0CFB026677600E68076894
:104C7000FF68C7F30B473E44761C1E430768843722
:104C80000CFB02777E608E890768FF68C7F30A070E
:104C90003E44330406688436802707FB0266B66804
:104CA00006F47047066884360CFB0266B7608E68AF
:104CB0000768FF68C7F30A073E44761C1E4307686F
:104CC00084370CFB0277BE6006688436802707FBBA
:104CD0000266366926F00707066884360CFB026612
:104CE00037610F69066884360CFB0266376131262E
:104CF000765C33023226765C34040E7E3506066816
:104D00008436802707FB0266B6690027066884366A
:104D10000CFB0266B76191F830601E4326432E43B8
:104D2000076884370CFB0277BE61066884368027EB
:104D300007FB0266766926F0FF07066884360CFBDF
:104D4000026677614F69066884360CFB02667761FC
:104D500006688436802707FB0266F76940F207760B
:104D6000B743066884360CFB0266F761D1E9076732
:104D70003E43076884370CFB0277FE610668843681
:104D8000802707FB0266B66A0027066884360CFB9C
:104D90000266B7624F6A066884360CFB0266B76229
:104DA0000E690EB9042313E00E69012E01D103230D
:104DB0000EE00E69042E08D00E69022E05D00E6991
:104DC000032E02D00E69072E01D1022300E0012339
:104DD00006688436802707FB0266F66A06F0E0273D
:104DE000066884364FF0800C0CFB0266F762D1E94E
:104DF0000076F61B5E43F71C0E8D5E4347EA0647BE
:104E0000066884360CFB0266F762066884368027E3
:104E100007FB0266366BF70AFF02066884360CFB56
:104E200002663763CF6A066884360CFB0266376316
:104E300006688436D701F65946F0010706688436BD
:104E40004FEAC21C46F80C70F0BD10B5FDF7B4FC7B
:104E5000142001F086FE002001F0A2FB4FF48070C8
:104E600001F09EFBC82001F07CFE4FF4704001F081
:104E700097FB552001F0CEFB4FF2010001F090FBB3
:104E8000AA2001F0C7FB4FF2020001F089FB52207B
:104E900001F0C0FB4FF2030001F082FB082001F09B
:104EA000B9FB4FF2040001F07BFB012001F0B2FBE3
:104EB0004BF6014001F074FB862001F0ABFB4BF692
:104EC000024001F06DFB6A2001F0A4FB4BF601509B
:104ED00001F066FB862001F09DFB4BF6025001F0CD
:104EE0005FFB6A2001F096FB4BF6016001F058FB76
:104EF000672001F08FFB4FF4514001F051FB00207F
:104F000001F088FB4DF2011001F04AFB5D2001F039
:104F100081FB4DF2021001F043FB002001F07AFB0F
:104F20004DF2031001F03CFB6B2001F073FB4DF2DE
:104F3000041001F035FB002001F06CFB4DF2051070
:104F400001F02EFB842001F065FB4DF2061001F00C
:104F500027FB002001F05EFB4DF2071001F020FB63
:104F60009C2001F057FB4DF2081001F019FB0020C6
:104F700001F050FB4DF2091001F012FBB12001F0DD
:104F800049FB4DF20A1001F00BFB002001F042FB3F
:104F90004DF20B1001F004FBD92001F03BFB4DF268
:104FA0000C1001F0FDFA002001F034FB4DF20D1061
:104FB00001F0F6FAFD2001F02DFB4DF20E1001F08C
:104FC000EFFA012001F026FB4DF20F1001F0E8FA94
:104FD000382001F01FFB4DF2101001F0E1FA012022
:104FE00001F018FB4DF2111001F0DAFA682001F01F
:104FF00011FB4DF2121001F0D3FA012001F00AFB6F
:105000004DF2131001F0CCFAB92001F003FB4DF280
:10501000141001F0C5FA012001F0FCFA4DF2151050
:1050200001F0BEFAFB2001F0F5FA4DF2161001F086
:10503000B7FA022001F0EEFA4DF2171001F0B0FAC3
:10504000632001F0E7FA4DF2181001F0A9FA0220EE
:1050500001F0E0FA4DF2191001F0A2FAB92001F0C6
:10506000D9FA4DF21A1001F09BFA022001F0D2FA9F
:105070004DF21B1001F094FABB2001F0CBFA4DF277
:105080001C1001F08DFA032001F0C4FA4DF21D103E
:1050900001F086FA032001F0BDFA4DF21E1001F076
:1050A0007FFA032001F0B6FA4DF21F1001F078FAF2
:1050B000462001F0AFFA4DF2201001F071FA032002
:1050C00001F0A8FA4DF2211001F06AFA692001F00E
:1050D000A1FA4DF2221001F063FA032001F09AFACE
:1050E0004DF2231001F05CFA8F2001F093FA4DF29B
:1050F000241001F055FA032001F08CFA4DF225102E
:1051000001F04EFAA42001F085FA4DF2261001F0CC
:1051100047FA032001F07EFA4DF2271001F040FA21
:10512000B92001F077FA4DF2281001F039FA032086
:1051300001F070FA4DF2291001F032FAC72001F0A7
:1051400069FA4DF22A1001F02BFA032001F062FAFD
:105150004DF22B1001F024FAC92001F05BFA4DF258
:105160002C1001F01DFA032001F054FA4DF22D101D
:1051700001F016FACB2001F04DFA4DF22E1001F09D
:105180000FFA032001F046FA4DF22F1001F008FA51
:10519000CB2001F03FFA4DF2301001F001FA03206C
:1051A00001F038FA4DF2311001F0FAF9CB2001F09C
:1051B00031FA4DF2321001F0F3F9032001F02AFA2E
:1051C0004DF2331001F0ECF9CC2001F023FA4FF44A
:1051D000524001F0E5F9002001F01CFA4DF20120E7
:1051E00001F0DEF95D2001F015FA4DF2022001F028
:1051F000D7F9002001F00EFA4DF2032001F0D0F9AA
:105200006B2001F007FA4DF2042001F0C9F90020EB
:1052100001F000FA4DF2052001F0C2F9842001F0FE
:10522000F9F94DF2062001F0BBF9002001F0F2F986
:105230004DF2072001F0B4F99C2001F0EBF94DF29A
:10524000082001F0ADF9002001F0E4F94DF2092049
:1052500001F0A6F9B12001F0DDF94DF20A2001F0CC
:105260009FF9002001F0D6F94DF20B2001F098F9DA
:10527000D92001F0CFF94DF20C2001F091F9002076
:1052800001F0C8F94DF20D2001F08AF9FD2001F07E
:10529000C1F94DF20E2001F083F9012001F0BAF9B5
:1052A0004DF20F2001F07CF9382001F0B3F94DF2F6
:1052B000102001F075F9012001F0ACF94DF2112038
:1052C00001F06EF9682001F0A5F94DF2122001F00D
:1052D00067F9012001F09EF94DF2132001F060F909
:1052E000B92001F097F94DF2142001F059F901208D
:1052F00001F090F94DF2152001F052F9FB2001F078
:1053000089F94DF2162001F04BF9022001F082F9E3
:105310004DF2172001F044F9632001F07BF94DF2C2
:10532000182001F03DF9022001F074F94DF2192026
:1053300001F036F9B92001F06DF94DF21A2001F0B3
:105340002FF9022001F066F94DF21B2001F028F937
:10535000BB2001F05FF94DF21C2001F021F9032080
:1053600001F058F94DF21D2001F01AF9032001F067
:1053700051F94DF21E2001F013F9032001F04AF912
:105380004DF21F2001F00CF9462001F043F94DF2D7
:10539000202001F005F9032001F03CF94DF2212015
:1053A00001F0FEF8692001F035F94DF2222001F0FC
:1053B000F7F8032001F02EF94DF2232001F0F0F868
:1053C0008F2001F027F94DF2242001F0E9F80320A5
:1053D00001F020F94DF2252001F0E2F8A42001F0BF
:1053E00019F94DF2262001F0DBF8032001F012F943
:1053F0004DF2272001F0D4F8B92001F00BF94DF25D
:10540000282001F0CDF8032001F004F94DF2292005
:1054100001F0C6F8C72001F0FDF84DF22A2001F096
:10542000BFF8032001F0F6F84DF22B2001F0B8F898
:10543000C92001F0EFF84DF22C2001F0B1F8032063
:1054400001F0E8F84DF22D2001F0AAF8CB2001F090
:10545000E1F84DF22E2001F0A3F8032001F0DAF874
:105460004DF22F2001F09CF8CB2001F0D3F84DF243
:10547000302001F095F8032001F0CCF84DF23120F6
:1054800001F08EF8CB2001F0C5F84DF2322001F08A
:1054900087F8032001F0BEF84DF2332001F080F8C8
:1054A000CC2001F0B7F84FF4534001F079F8002018
:1054B00001F0B0F84DF2013001F072F85D2001F01A
:1054C000A9F84DF2023001F06BF8002001F0A2F8CB
:1054D0004DF2033001F064F86B2001F09BF84DF2BF
:1054E000043001F05DF8002001F094F84DF2053031
:1054F00001F056F8842001F08DF84DF2063001F0ED
:105500004FF8002001F086F84DF2073001F048F81E
:105510009C2001F07FF84DF2083001F041F80020A6
:1055200001F078F84DF2093001F03AF8B12001F0BD
:1055300071F84DF20A3001F033F8002001F06AF8FA
:105540004DF20B3001F02CF8D92001F063F84DF248
:105550000C3001F025F8002001F05CF84DF20D3020
:1055600001F01EF8FD2001F055F84DF20E3001F06B
:1055700017F8012001F04EF84DF20F3001F010F84D
:10558000382001F047F84DF2103001F009F8012001
:1055900001F040F84DF2113001F002F8682001F0FE
:1055A00039F84DF2123000F0FBFF012001F032F823
:1055B0004DF2133000F0F4FFB92001F02BF84DF25A
:1055C000143000F0EDFF012001F024F84DF2153009
:1055D00000F0E6FFFB2001F01DF84DF2163000F060
:1055E000DFFF022001F016F84DF2173000F0D8FF6F
:1055F000632001F00FF84DF2183000F0D1FF0220C7
:1056000001F008F84DF2193000F0CAFFB92001F09E
:1056100001F84DF21A3000F0C3FF022000F0FAFF4B
:105620004DF21B3000F0BCFFBB2000F0F3FF4DF249
:105630001C3000F0B5FF032000F0ECFF4DF21D30F0
:1056400000F0AEFF032000F0E5FF4DF21E3000F049
:10565000A7FF032000F0DEFF4DF21F3000F0A0FF97
:10566000462000F0D7FF4DF2203000F099FF0320D4
:1056700000F0D0FF4DF2213000F092FF692000F0E1
:10568000C9FF4DF2223000F08BFF032000F0C2FF73
:105690004DF2233000F084FF8F2000F0BBFF4DF26D
:1056A000243000F07DFF032000F0B4FF4DF22530E0
:1056B00000F076FFA42000F0ADFF4DF2263000F0A0
:1056C0006FFF032000F0A6FF4DF2273000F068FFC7
:1056D000B92000F09FFF4DF2283000F061FF032059
:1056E00000F098FF4DF2293000F05AFFC72000F07B
:1056F00091FF4DF22A3000F053FF032000F08AFFA3
:105700004DF22B3000F04CFFC92000F083FF4DF22A
:105710002C3000F045FF032000F07CFF4DF22D30CF
:1057200000F03EFFCB2000F075FF4DF22E3000F070
:1057300037FF032000F06EFF4DF22F3000F030FFF6
:10574000CB2000F067FF4DF2303000F029FF03203E
:1057500000F060FF4DF2313000F022FFCB2000F06E
:1057600059FF4DF2323000F01BFF032000F052FFD2
:105770004DF2333000F014FFCC2000F04BFF4FF41B
:10578000544000F00DFF002000F044FF4DF20140B6
:1057900000F006FF5D2000F03DFF4DF2024000F0FA
:1057A000FFFE002000F036FF4DF2034000F0F8FE4F
:1057B0006B2000F02FFF4DF2044000F0F1FE0020BE
:1057C00000F028FF4DF2054000F0EAFE842000F0D2
:1057D00021FF4DF2064000F0E3FE002000F01AFF2A
:1057E0004DF2074000F0DCFE9C2000F013FF4DF26C
:1057F000084000F0D5FE002000F00CFF4DF20940FB
:1058000000F0CEFEB12000F005FF4DF20A4000F09E
:10581000C7FE002000F0FEFE4DF20B4000F0C0FE7F
:10582000D92000F0F7FE4DF20C4000F0B9FE002048
:1058300000F0F0FE4DF20D4000F0B2FEFD2000F051
:10584000E9FE4DF20E4000F0ABFE012000F0E2FE5A
:105850004DF20F4000F0A4FE382000F0DBFE4DF2C8
:10586000104000F09DFE012000F0D4FE4DF21140EA
:1058700000F096FE682000F0CDFE4DF2124000F0E0
:105880008FFE012000F0C6FE4DF2134000F088FEAE
:10589000B92000F0BFFE4DF2144000F081FE01205F
:1058A00000F0B8FE4DF2154000F07AFEFB2000F04B
:1058B000B1FE4DF2164000F073FE022000F0AAFE89
:1058C0004DF2174000F06CFE632000F0A3FE4DF295
:1058D000184000F065FE022000F09CFE4DF21940D9
:1058E00000F05EFEB92000F095FE4DF21A4000F087
:1058F00057FE022000F08EFE4DF21B4000F050FEDD
:10590000BB2000F087FE4DF21C4000F049FE032052
:1059100000F080FE4DF21D4000F042FE032000F03A
:1059200079FE4DF21E4000F03BFE032000F072FEB7
:105930004DF21F4000F034FE462000F06BFE4DF2A9
:10594000204000F02DFE032000F064FE4DF22140C7
:1059500000F026FE692000F05DFE4DF2224000F0CE
:105960001FFE032000F056FE4DF2234000F018FE0B
:105970008F2000F04FFE4DF2244000F011FE032076
:1059800000F048FE4DF2254000F00AFEA42000F091
:1059900041FE4DF2264000F003FE032000F03AFEE7
:1059A0004DF2274000F0FCFDB92000F033FE4DF22F
:1059B000284000F0F5FD032000F02CFE4DF22940B8
:1059C00000F0EEFDC72000F025FE4DF22A4000F069
:1059D000E7FD032000F01EFE4DF22B4000F0E0FD3D
:1059E000C92000F017FE4DF22C4000F0D9FD032035
:1059F00000F010FE4DF22D4000F0D2FDCB2000F063
:105A000009FE4DF22E4000F0CBFD032000F002FE17
:105A10004DF22F4000F0C4FDCB2000F0FBFD4DF215
:105A2000304000F0BDFD032000F0F4FD4DF23140A8
:105A300000F0B6FDCB2000F0EDFD4DF2324000F05D
:105A4000AFFD032000F0E6FD4DF2334000F0A8FD6D
:105A5000CC2000F0DFFD4FF4554000F0A1FD002008
:105A600000F0D8FD4DF2015000F09AFD5D2000F0ED
:105A7000D1FD4DF2025000F093FD002000F0CAFD70
:105A80004DF2035000F08CFD6B2000F0C3FD4DF291
:105A9000045000F085FD002000F0BCFD4DF20550E3
:105AA00000F07EFD842000F0B5FD4DF2065000F0C0
:105AB00077FD002000F0AEFD4DF2075000F070FDC4
:105AC0009C2000F0A7FD4DF2085000F069FD002079
:105AD00000F0A0FD4DF2095000F062FDB12000F091
