:020000040800F2
:10000000480900209D010008B32100081F1F0008B7
:10001000B1210008E5020008E52900080000000001
:10002000000000000000000000000000BB210008EC
:10003000EB03000800000000B9210008BD21000802
:10004000B7010008B5210008B7010008B701000892
:10005000B7010008B7010008B7010008B7010008A0
:10006000B7010008B7010008B9040008B70100088B
:10007000B7010008B7010008B7010008B701000880
:10008000B7010008B7010008B7010008B701000870
:10009000B7010008B7010008B7010008B701000860
:1000A000B7010008B7010008B7010008B701000850
:1000B0005D220008B7010008B7010008B701000879
:1000C000B7010008B7010008B7010008B701000830
:1000D000B7010008D1290008B7010008B7010008DE
:1000E000B7010008B7010008B7010008B701000810
:1000F000B7010008B7010008B7010008B701000800
:10010000B7010008B7010008B7010008B7010008EF
:10011000B7010008B7010008B7010008B7010008DF
:10012000B7010008B7010008E9020008B70100089C
:10013000B7010008B7010008B7010008B7010008BF
:10014000B7010008B7010008B7010008B7010008AF
:10015000B7010008B7010008F5020008B701000860
:10016000B7010008B7010008B7010008B70100088F
:10017000B7010008B7010008B7010008000000003F
:10018000B7010008B7010008DFF80CD000F098F8BC
:1001900000480047612D00084809002006488047B4
:1001A00006480047FEE7FEE7FEE7FEE7FEE7FEE75C
:1001B000FEE7FEE7FEE7FEE74D22000889010008A2
:1001C0002DE9F05F0546002092469B46884606468C
:1001D000814640241BE0284641464746224600F01F
:1001E0005EF853465A46C01A914110D3114618463C
:1001F000224600F045F82D1A67EB01084F462246CB
:100200000120002100F03CF817EB00094E41201EB0
:10021000A4F10104DFDC484631462A464346BDE8E6
:10022000F09FD2B201E000F8012B491EFBD27047CB
:100230000022F6E710B513460A4604461946FFF7B2
:10024000F0FF204610BD421C10F8011B0029FBD115
:10025000801A704730B50B46014600202022012449
:1002600009E021FA02F59D4205D303FA02F5491B84
:1002700004FA02F52844151EA2F10102F1DC30BD9A
:10028000202A04DB203A00FA02F100207047914056
:10029000C2F1200320FA03F3194390407047202A4B
:1002A00004DB203A21FA02F00021704721FA02F320
:1002B000D040C2F120029140084319467047000027
:1002C000064C074D06E0E06840F0010394E80700A3
:1002D00098471034AC42F6D3FFF75AFFB42E00080B
:1002E000D42E0008FEE70000014800F04DB90000E0
:1002F00088020020014800F047B90000E802002011
:1003000001680A4BCAB2103AA3FB02321209084B29
:100310009B5CC365032A04D96FF30901091D81653C
:1003200002E06FF309018165806D7047ABAAAAAA4C
:10033000A42E0008014600208A6A8B69002B0FD08A
:10034000B3F5005F1DD08AB3012A30D0022A2ED027
:10035000032A04D1C96A11F0807F00D001207047C0
:100360001AB1012A07D0022AF9D1C96A11F0807F97
:10037000F5D001207047C96AB1F1C07FFAD10120E0
:1003800070475AB1012A0BD0022A07D0032AF7D1AD
:10039000C96AB1F1C07FF3D10120704701207047D5
:1003A000C96A11F0807FFAD001207047FFE7012071
:1003B000704710B4D0F800C0DCF8004024F480246A
:1003C000CCF80040D0F800C0CCF804308368402B53
:1003D00005D0036899600068C26010BC704703686C
:1003E0009A600068C16010BC7047704710B512A0D9
:1003F00002F03EFD4FF4FA74204600F069FA12A0B4
:1004000002F036FD204600F063FA19A002F030FD3C
:10041000204600F05DFA1DA002F02AFD204600F003
:1004200057FA1EA002F024FD204600F051FA21499F
:100430000120086010BD000041542B43574D4F442C
:10044000453D320D0A00000041542B4357534150A3
:100450003D2245535038323636222C223132333445
:1004600035363738222C31312C330D0A000000008C
:1004700041542B43495041503D223139322E3136BF
:10048000382E342E31220D0A0000000041542B4337
:1004900049504D55583D310D0A00000041542B4341
:1004A00049505345525645523D312C383038300D65
:1004B0000A00000018000020102000F047BA72B6B1
:1004C000FEE72DE9F0410446A66D00F079FB0546F4
:1004D00094F835000027022806D08020606584F853
:1004E00034700120BDE8F0812068016821F0160118
:1004F00001602068416921F080014161206C08B9E8
:10050000A06C20B12068016821F00801016020681A
:10051000016821F0010101602068006810F0010FFE
:1005200012D000F04DFB401B052808D92020606543
:1005300084F83470032084F83500BDE8F081206829
:10054000006810F0010FECD194F85C003F2101FA33
:1005500000F0B06084F83470012084F83500002089
:10056000BDE8F08190F83510022903D08021416563
:1005700001207047052180F835100068016821F0DE
:1005800001010160002070472DE9F84304464FF057
:100590000008CDF8008076484FF416510068B0FB93
:1005A000F1F7A56D2E6894F85C00082101FA00F0BF
:1005B000304211D02068026812F0040F0CD002689B
:1005C00022F00402026094F85C0001FA00F0A860D6
:1005D000606D40F00100606594F85C004FF0010927
:1005E00009FA00F0304209D02168496911F0800F02
:1005F00004D0A860606D40F00200606594F85C1063
:1006000004208840304209D02168096811F0020FA7
:1006100004D0A860606D40F00400606594F85C1040
:1006200010208840304224D02168096811F0080F5A
:100630001FD0A8602068016811F4802F0DD00068D9
:1006400010F4002F04D0A16C99B12046884710E027
:10065000216C71B1204688470BE0016811F4807F5E
:1006600003D1016821F008010160216C09B1204625
:10067000884794F85C1020208840304251D021688F
:10068000096811F0100F4CD0A86094F835000528C7
:100690000DD02068016811F4802F32D0006810F46A
:1006A000002F29D0E16B59B32046884739E02068F4
:1006B000016821F0160101602068416921F0800184
:1006C0004161206C08B9A06C20B12068016821F05C
:1006D0000801016094F85C003F2101FA00F0A86075
:1006E00084F8348084F83590216D00293ED001B023
:1006F0002046BDE8F0430847616C09B120468847B1
:100700000FE0016811F4807F07D1016821F010012A
:10071000016084F8348084F83590E16B09B120469B
:100720008847606D002821D0606D10F0010F15D052
:10073000052084F835002068016821F0010101607E
:100740000098401C0090B84204D82068006810F05F
:10075000010FF5D184F8348084F83590E16C0029DC
:1007600004D001B02046BDE8F0430847BDE8F88357
:10077000080000202DE9F041044600F021FA05466A
:10078000DCB1002684F83460022084F8350020684B
:10079000016821F0010101602068006810F0010F7C
:1007A00013D000F00DFA401B052809D92020606500
:1007B000032084F83500BDE8F0810120BDE8F08118
:1007C0002068006810F0010FEBD121680868234A07
:1007D0001040A3686268D4F810C01A43E36843EA83
:1007E0000C031A4363691A43A3691A43E3691A4362
:1007F000236A1A431043626A042A03D1236BE26A14
:100800001A43104308602068406920F00701606ABD
:1008100040EA0105012704280ED1A06A0543E06AD9
:1008200050B12046FFF786FD30B14020606584F866
:1008300035700120BDE8F081206845612046FFF752
:100840005FFD94F85C103F2202FA01F18160666559
:1008500084F835700020BDE8F08100003F8010F082
:1008600070B504460025A66D94F8340001280DD01B
:10087000012084F8340094F835C00020BCF1010F49
:1008800006D084F834000225284670BD022070BDD1
:100890004FF0020C84F835C060652046FFF789FDF3
:1008A00094F85C003F2101FA00F0B0602068016814
:1008B00041F016010160206C20B12068016841F010
:1008C000080101602068016841F001010160DBE777
:1008D00070B5044600F074F90546B4F1FF3F02D04C
:1008E00004480078044400F06BF9401BA042FAD39E
:1008F00070BD00000C00002010B510281DD10F485D
:100900000068002819D010210D4800F043F9012893
:100910000CD11E20FFF7DCFF0A48016859B1002105
:1009200001604FF48061084800F03BF9BDE81040D9
:100930001E20FFF7CDBF0121F2E710BD18000020F7
:1009400000100240000000200014024010B50449CD
:100950000A68024202D00860FFF7CEFF10BD000017
:10096000143C01402DE9F84F0022DFF81492DFF823
:1009700014A2DFF814B24FF0010E03274FF00F0856
:100980000EFA02FC0B6803EA0C0363457DD10C7977
:1009900004F00304012C01D0022C14D1856854000A
:1009A00007FA04F6B543CE6806FA04F42C438460D3
:1009B000446824EA0C0C0C79C4F30014944044EA13
:1009C0000C0CC0F804C0D1F804C037EA0C0C0CD0F1
:1009D000C4684FEA420C07FA0CF5AC438D6805FA7F
:1009E0000CFC4CEA040CC0F80CC091F804C00CF0EC
:1009F000030CBCF1020F12D14FEAD20C00EB8C04B5
:100A0000256A4FEA427C4FEADC6C08FA0CF6B543E3
:100A10000E6906FA0CFC4CEA050CC4F820C0046808
:100A20004FEA420C07FA0CF5AC430D7905F00305CB
:100A300005FA0CFC4CEA040CC0F800C0D1F804C064
:100A40001CF0805F7DD0D9F800C04CF4804CC9F810
:100A500000C0D9F800C00CF4804CCDF800C022F0E2
:100A6000030C0CF1804505F59835D5F808C89407B6
:100A7000240F08FA04F62CEA0606A0F1804CBCF517
:100A8000003C64D0A0F1804C00E05AE0BCF5013C91
:100A900060D0A0F1804CBCF5023C5ED0A0F1804C4F
:100AA000BCF5033C5CD0A0F1804CBCF5043C5AD0B2
:100AB000A0F1804CBCF5053C58D0A0F1804CBCF5B1
:100AC000063C56D0A0F1804CBCF5073C54D04FF00A
:100AD000080C0CFA04FC4CEA060CC5F808C8DAF855
:100AE00000C02CEA030C4C6814F4803F01D04CEA9F
:100AF000030CCAF800C0254CD4F800C02CEA030C43
:100B00004D6815F4003F01D04CEA030CC4F800C056
:100B1000DBF800C02CEA030C4C6814F4801F01D0F1
:100B20004CEA030CCBF800C0194CD4F800C02CEAF6
:100B3000030C4D6815F4001F01D04CEA030CC4F8F7
:100B400000C0521C102AFFF41BAFBDE8F88F4FF015
:100B5000000CBEE74FF0010CBBE74FF0020CB8E70A
:100B60004FF0030CB5E74FF0040CB2E74FF0050C63
:100B7000AFE74FF0060CACE74FF0070CA9E7000019
:100B800044380240003C0140083C0140043C014024
:100B90000C3C01400069084201D001207047002050
:100BA0007047426921EA0203114043EA0141816131
:100BB0007047002A01D08161704709048161704744
:100BC00001488068704700000C00002002488168DE
:100BD00002781144816070470C00002010B50B486A
:100BE000016841F400710160016841F480610160B5
:100BF000016841F480710160032000F08DF800204D
:100C000000F006F800F026F8002010BD003C02407D
:100C100070B504460D4D4FF47A712878B1FBF0F0B1
:100C20000B490968B1FBF0F000F0F4FB08B10120BA
:100C300070BD102C07D200222146501E00F038F85B
:100C40006C60002070BD012070BD00000C00002011
:100C5000080000200E4808B5016841F48041016099
:100C6000006800F4804000900948001F016841F0CE
:100C7000805101600068002200F080500090114611
:100C8000012000F015F8BDE80840012000F002B88E
:100C90004438024000280ADB00F01F01012202FA5A
:100CA00001F14009800000F1E020C0F80011704718
:100CB00010B4184B1B68C3F30223C3F1070CBCF13B
:100CC000040F01D94FF0040C1C1D072C01D2002386
:100CD00000E0DB1E012404FA0CFCACF1010C0CEA70
:100CE0000101994004FA03F35B1E1A4011430028E6
:100CF00006DB00F1E020090180F8001410BC704709
:100D000000F00F0000F1E020090180F8141D10BC74
:100D1000704700000CED00E000F00700064A116883
:100D20004FF6FF03194041EA002040F0FD7040F00B
:100D300080601060704700000CED00E0704700001C
:100D400010B5054C206810F4803F04D0FFF7F6FF83
:100D50004FF48030206010BD143C01402DE9F04775
:100D600004460D46002C13D0DFF85491D9F800004A
:100D7000EFB200F00700A8420DD289F80070D9F850
:100D8000000000F00700A84205D00120BDE8F08770
:100D90000120BDE8F08720684A4E10F0020F14D001
:100DA00010F0040F03D0306840F4E0503060207839
:100DB00010F0080F03D0306840F4604030603068B5
:100DC000A16820F0F00008433060207810F0010F97
:100DD0003ED060683C49012808D002280DD0032885
:100DE0000BD0096811F0020F28D00AE0096811F44D
:100DF000003F06D10120BDE8F087096811F0007FAF
:100E000019D0316821F0030108433060FFF7D8FEA4
:100E100080463068616800F00C00B0EB810F17D09D
:100E200041F2883AFFF7CCFEA0EB0800504508D904
:100E30000320BDE8F0870120BDE8F0870120BDE870
:100E4000F0873068616800F00C00B0EB810FE9D1E9
:100E5000D9F8000000F00700A8420AD989F800700C
:100E6000D9F8000000F00700A84202D00120BDE838
:100E7000F087207810F0040F05D03068E16820F486
:100E8000E05008433060207810F0080F06D030683A
:100E9000216920F4604040EAC100306000F042F86F
:100EA00031680A4AC1F30311515CC840084908601F
:100EB00008480068FFF7ACFE0020BDE8F08700009E
:100EC000003C024008380240003802408C2E0008E6
:100ED0000800002010000020014800687047000052
:100EE0000800002000B5FFF7F7FF04490968044A2D
:100EF000C1F38221515CC84000BD000008380240A7
:100F00009C2E000800B5FFF7E7FF04490968044A72
:100F1000C1F34231515CC84000BD000008380240B6
:100F20009C2E000810B51748006810F00C011648F8
:100F300016D04310042912D0082911D1134C21686E
:100F400001F03F02216811F4800F0AD02068C0F33D
:100F50008810A0FB03010023FFF732F909E01846CF
:100F600010BD21680023C1F38811A1FB0001FFF728
:100F700027F92168C1F30141491C4900B0FBF1F098
:100F800010BD0000083802400024F400043802407C
:100F90002DE9F84F0446002C12D02078FB4E10F0BB
:100FA000010FA6F1040563D0301D016801F00C01AA
:100FB00004290CD0006800F00C00082803D010E0D1
:100FC0000120BDE8F88F306810F4800F09D0286840
:100FD00010F4003F4CD06068002849D10120BDE8E2
:100FE000F88F6068B0F5803F14D0B0F5A02F16D010
:100FF000286820F480302860286820F48020286049
:10100000606810B3FFF7DCFD0746286810F4003F66
:101010000ED02DE0286840F480302860F0E7286882
:1010200040F480202860286840F480302860E7E79A
:10103000FFF7C6FDC01B642802D90320BDE8F88F66
:10104000286810F4003FF3D012E0FFF7B9FD07461F
:10105000286810F4003F0BD0FFF7B2FDC01B6428D6
:1010600002D90320BDE8F88F286810F4003FF3D1BF
:101070002078C74F10F0020F4FF0000957D0C54835
:10108000016811F00C0F14D0006800F00C00082863
:1010900003D1306810F4800F0BD0E06880B30120DA
:1010A0003860FFF78DFD8046286810F0020F12D0DF
:1010B0001EE0286810F0020F05D0E068012802D079
:1010C0000120BDE8F88F2868216920F0F80040EA87
:1010D000C10028602BE0FFF773FDA0EB0800022899
:1010E00002D90320BDE8F88F286810F0020FF2D073
:1010F0002868216920F0F80040EAC100286016E065
:10110000FFE7C7F80090FFF75BFD8046286810F006
:10111000020F0CD0FFF754FDA0EB0800022802D903
:101120000320BDE8F88F286810F0020FF2D1207874
:1011300010F0080F35D09848DFF860A26169C1B19E
:1011400001210160FFF73CFD8046DAF8000010F055
:10115000020F26D1FFF734FDA0EB0800022802D9C8
:101160000320BDE8F88FDAF8000010F0020FF1D08C
:1011700017E0C0F80090FFF723FD8046DAF8000082
:1011800010F0020F0DD0FFF71BFDA0EB08000228A6
:1011900002D90320BDE8F88FDAF8000010F0020F42
:1011A000F1D1207810F0040F71D04FF000087C4886
:1011B000006810F0805F0AD17948016841F08051E1
:1011C0000160006800F0805000904FF00108DFF8E7
:1011D000D4B1DBF8000010F4807F1BD1DBF80000F5
:1011E00040F48070CBF80000FFF7EAFC8246DBF8A1
:1011F000000010F4807F0DD1FFF7E2FCA0EB0A00A5
:10120000022802D90320BDE8F88FDBF8000010F4B3
:10121000807FF1D0A068DFF890B1012818D00528B0
:101220001DD0DBF8000020F00100CBF80000DBF857
:10123000000020F00400CBF80000A06840B3FFF7E6
:10124000BFFC8246DBF8000010F0020F14D03EE035
:10125000DBF8000040F00100CBF80000EDE7DBF820
:10126000000040F00400CBF80000DBF8000040F084
:101270000100CBF80000E0E7FFF7A2FCA0EB0A01B9
:1012800041F28830814204D90320BDE8F88F26E07E
:1012900005E0DBF8000010F0020FEDD017E0FFF7DB
:1012A0008FFC8246DBF8000010F0020F0FD0FFF732
:1012B00087FCA0EB0A0141F28830814202D9032069
:1012C000BDE8F88FDBF8000010F0020FEFD1B8F1A5
:1012D000010F04D13248016821F080510160A069FA
:1012E000F0B32C4909684FF0FF3801F00C010829D0
:1012F00066D0022810D0C7F86090FFF761FC044662
:10130000286810F0007F2BD0FFF75AFC001B022842
:1013100051D90320BDE8F88FC7F86090FFF750FC63
:101320008146286810F0007F0CD0FFF749FCA0EB45
:101330000900022802D90320BDE8F88F286810F0C0
:10134000007FF2D1216AE069A26A0843616A08EB72
:101350005202890141EA0241084394F82C1000E04E
:1013600055E040EA0160306001203866FFF728FC54
:101370000446286810F0007F49D1FFF721FC001BCC
:10138000022813D90320BDE8F88F0000043802407A
:101390000000474208380240800E4742743802403D
:1013A000403802400070004070380240286810F059
:1013B000007FE2D02BE0286810F0007FA4D126E067
:1013C000012822D03068E26900F4800191421AD1EC
:1013D000226A00F03F01914215D147F6C071626A5E
:1013E0000140B1EB821F0ED1A26A00F4403108EB3C
:1013F0005202B1EB024F06D194F82C1000F070604D
:10140000B0EB016F03D00120BDE70120BBE7002056
:10141000B9E70000401EB0F1807F01D30120704782
:101420004FF0E0214861044AF020107000208861EC
:10143000072008610020704723ED00E070477047E7
:1014400090F83C20012A2CD0012280F83C20CA6868
:101450000023D1F808C022F4407242EA0C02D1F80D
:1014600004C022F4806242EA0C02D1F800C022F4E7
:10147000006242EA0C02D1F810C022F4805242EA23
:101480000C02D1F814C022F4005242EA0C02C969DD
:1014900022F4804211430268516480F83C300020FD
:1014A00070470220704730B490F83C20012A44D0A5
:1014B000012480F83C40022280F83D200268D2F8E6
:1014C00004C093682CF0700C0D6845EA0C0CC2F84F
:1014D00004C00268A2F1804CBCF5803C20D0B2F17F
:1014E000804F1DD0A2F1804CBCF5806C18D0A2F1C9
:1014F000804CBCF5006C13D0A2F1804CBCF5406C64
:101500000ED0A2F1804CBCF5823C09D0A2F1804CF7
:10151000BCF5A03C04D0A2F1804CBCF5C05C04D169
:1015200023F0800349681943916080F83D40002111
:1015300080F83C1030BC0020704730BC022070475F
:1015400010B50446002C03D094F83D0010B107E01C
:10155000012010BD002084F83C00204600F01EF859
:10156000022084F83D00211D206800F07DFE01204E
:1015700084F8460084F83E0084F83F0084F8400078
:1015800084F8410084F8420084F8430084F8440061
:1015900084F8450084F83D00002010BD08B50068BF
:1015A0001149884209D11148016841F001010160E7
:1015B000006800F00100009008BDB0F1804FFBD141
:1015C0000A48001F016841F0010101600068002223
:1015D00000F00100009001211C20FFF769FBBDE82D
:1015E00008401C20FFF756BB000001404438024071
:1015F00090F83D10012901D001207047022180F8A8
:101600003D100168CA6842F00102CA600068A0F19A
:101610008041B1F5803126D0B0F1804F23D0A0F1C8
:101620008041B1F580611ED0A0F18041B1F500612B
:1016300019D0A0F18041B1F5406114D0A0F18041F2
:10164000B1F582310FD0A0F18041B1F5A0310AD0BF
:10165000A0F18041B1F5C05105D0016841F0010110
:10166000016000207047816801F007010629F8D069
:10167000016841F001010160F3E770B5044694F898
:101680003C00012818D0012584F83C50022084F841
:101690003D002068826822F0770222F47F42826057
:1016A0000868502832D00EDC20284DD006DC0028F7
:1016B0004AD010284DD147E0022070BD302843D0D9
:1016C000402846D136E060282AD0702806D0B0F5F0
:1016D000805F3ED0B0F5005F3BD10BE0CB684A683D
:1016E0008968206800F026FE2068816841F0770153
:1016F00081602EE0CB684A688968206800F01AFE95
:101700002068816841F48041816022E0CA684968AC
:10171000206800F0FFFE5021206800F016FE18E05F
:10172000CA684968206800F008FF6021206800F05E
:101730000CFE0EE0CA684968206800F0EBFE40210C
:10174000206800F002FE04E022680146104600F026
:10175000FCFD84F83D50002084F83C0070BD7047CB
:1017600070B50446206801694FF0000511F0020FC2
:1017700017D0C16811F0020F13D0E91E01610120DA
:1017800020772068806910F0030F03D02046FFF710
:10179000E6FF05E0204600F0C7F8204600F05DF9BE
:1017A00025772068016911F0040F18D0C16811F085
:1017B000040F14D06FF0040101610220207720682B
:1017C000806910F4407F03D02046FFF7C8FF05E092
:1017D000204600F0A9F8204600F03FF92577206860
:1017E000016911F0080F18D0C16811F0080F14D06A
:1017F0006FF008010161042020772068C06910F0B3
:10180000030F03D02046FFF7AAFF05E0204600F0B3
:101810008BF8204600F021F925772068016911F046
:10182000100F18D0C16811F0100F14D06FF0100114
:101830000161082020772068C06910F4407F03D040
:101840002046FFF78CFF05E0204600F06DF82046AB
:1018500000F003F925772068016911F0010F09D024
:10186000C16811F0010F05D06FF001010161204640
:1018700000F0F4F82068016911F0800F09D0C16808
:1018800011F0800F05D06FF0800101612046FFF755
:10189000D5FD2068016911F0400F09D0C16811F031
:1018A000400F05D06FF040010161204600F0E2F8E2
:1018B0002068016911F0200F0BD0C16811F0200FD2
:1018C00007D06FF0200101612046BDE87040FFF7AE
:1018D000B6BD70BD10B586B0044614216846FEF74B
:1018E000A7FC0E492068884216D10D4800210268E5
:1018F00042F010020260006800F0100005904FF402
:10190000007000900220CDE901010120CDE9031013
:1019100069460448FFF726F806B010BD00000140F4
:101920003038024000100240704770B504460D4642
:1019300094F83C0001280AD0012084F83C0042B110
:10194000042A1AD0082A2DD00C2A53D13EE00220B6
:1019500070BD2946206800F001FD2068816941F0D2
:10196000080181612068816921F00401816120689A
:1019700081692A69114381613CE02946206800F0B1
:1019800025FD2068816941F40061816120688169D9
:1019900021F480618161206881692A6941EA02211C
:1019A000816127E02946206800F04CFD2068C1696C
:1019B00041F00801C1612068C16921F00401C161E1
:1019C0002068C1692A691143C16113E02946206872
:1019D00000F074FD2068C16941F40061C1612068B4
:1019E000C16921F48061C1612068C1692A6941EA45
:1019F0000221C161002084F83C0070BD10B504468E
:101A0000002C03D094F83D0010B107E0012010BD78
:101A1000002084F83C00204600F01EF8022084F8E4
:101A20003D00211D206800F01FFC012084F84600C5
:101A300084F83E0084F83F0084F8400084F84100B8
:101A400084F8420084F8430084F8440084F8450098
:101A500084F83D00002010BD704770470068B0F169
:101A6000804F04D14FF400710148FFF79AB87047D6
:101A7000001402407047704710B504462068416961
:101A8000C1F3C01194F83D20212A0BD151B1416915
:101A900021F080014161606B08B1FEF712FD204624
:101AA00000F0EAFD20684169C1F3801194F83E20FE
:101AB000222A0BD151B1416921F040014161A06B53
:101AC00008B1FEF7FEFC204600F0B1FD002010BD7D
:101AD00070470000F8B5044622681068D168536961
:101AE00000F00F0CBCF1000F0AD110F0200F07D04E
:101AF00011F0200F04D02046BDE8F84000F0C5BD2D
:101B00000025BCF1000F6DD003F0010C01F49076BC
:101B10005CEA060666D010F0010F06D011F4807F53
:101B200003D0226C42F00102226410F0040F06D0B0
:101B300013F0010F03D0226C42F00202226410F075
:101B4000020F06D013F0010F03D0226C42F0040202
:101B5000226410F0080F08D001F0200252EA0C02B3
:101B600003D0226C42F008022264226C002A2FD09B
:101B700010F0200F05D011F0200F02D0204600F009
:101B800084FD20684069C0F38010216C11F0080FBB
:101B900000D110B3204600F04AFD2068416911F0E1
:101BA000400F16D0416921F040014161A06B60B146
:101BB00047490165A06BFEF7D5FC002808D0A06B53
:101BC000016D01B0BDE8F04008472046FFF780FFF7
:101BD000F8BD2046FFF77CFFF8BD2046FFF778FFF1
:101BE0002564F8BD236B012B5CD110F0100F59D088
:101BF00011F0100F56D010685068009050694FF0E7
:101C0000200310F0400F2FD0A16B0868406880B20D
:101C10000028E6D0B4F82CC08445E2D9E085C86934
:101C2000B0F5807F18D0D06820F48070D060206834
:101C3000416921F0010141612068416921F04001C1
:101C4000416184F83E3025632068C16821F01001AD
:101C5000C160A06BFEF735FCA08DE18D401A81B20A
:101C60002046FFF708FFF8BDA08DE18D401A81B234
:101C7000E08D0028F7D00029F5D0D06820F49070CE
:101C8000D0602068426922F00102426184F83E304F
:101C900025632068C26822F01002C2602046FFF768
:101CA000EAFEF8BD10F0800F07D011F0800F04D0CD
:101CB0002046BDE8F84000F0F9BD10F0400FF0D02C
:101CC00011F0400FEDD02046BDE8F84000F0C7BC51
:101CD0005F25000870B50446002C04D094F83D0040
:101CE000002510B106E0012070BD84F83C5020466C
:101CF00000F022F8242084F83D002068C16821F417
:101D00000051C160204600F019FD2068016921F4EE
:101D1000904101612068416921F02A0141612068F8
:101D2000C16841F40051C1602564202084F83D0061
:101D300084F83E00002070BD2DE9F04186B00646D3
:101D400014216846FEF774FA30493068884259D148
:101D50002F480024016841F010010160006800F084
:101D6000100005902A481438016841F00101016013
:101D70000068694600F0010005904FF4C0600090D3
:101D80000220CDE90104032003900720049021489C
:101D9000FEF7E8FD214D20484FF000672860C5E9B7
:101DA00001744FF48068C5E903486C61AC61EC6173
:101DB0002C6228466C62FEF7DDFC08B1FEF77FFB63
:101DC000B563AE63154D144860357830E5E8020719
:101DD0004020A5E81101114845F814496030AC6174
:101DE000EC612C626C62FEF7C5FC08B1FEF767FB84
:101DF0007563002201212520AE63FEF759FF2520DF
:101E0000FEF748FF06B0BDE8F08100000010014079
:101E10004438024000000240406402408802002032
:101E200090F83E30202B01D00220704759B152B1BA
:101E300090F83C30012B08D0012380F83C3000237F
:101E4000036300F0F9BC012070470220704770471F
:101E500070472DE9F84304460E4615461F4694F890
:101E60003D00202802D00220BDE8F883C6B1BDB1F4
:101E700094F83C00012816D0012084F83C004FF073
:101E80000009C4F84090212084F83D00FEF798FE38
:101E90008046A584E584A068B0F5805F06D007E0A1
:101EA0000120BDE8F8830220BDE8F883206980B1F5
:101EB0003546002684F83C90E08CB8B143460022B9
:101EC00080212046009700F020FD20B10320BDE8CE
:101ED000F8830025EEE7A5B12168287848606D1CDD
:101EE000E08C401EE084E08C0028E7D143460022CD
:101EF00040212046009700F008FD48B10320BDE8CE
:101F0000F88330882168C0F308004860B61CE7E712
:101F1000202084F83D000020BDE8F8837047FEE7EC
:101F20000D4808B5016841F4800101600068002295
:101F300000F48000009001213A20FEF7B9FE3A201B
:101F4000FEF7A8FE002201214620FEF7B1FEBDE803
:101F500008404620FEF79EBE303802402DE9F04191
:101F600086B014216846FEF763F92C480024016806
:101F700041F010010160016801F010010591016854
:101F800041F004010160016801F00401059101685C
:101F900041F020010160016801F020010591016814
:101FA00041F080010160016801F080010591016844
:101FB00041F0010101600068DFF8648000F0010079
:101FC0004FF4E0660590002231464046FEF7F1FDF1
:101FD0000C2001258DE83100124F69463846FEF786
:101FE000C1FC102000901048019002200290694628
:101FF0003846FEF7B7FC0096CDE9015469464046E5
:102000000394FEF7AFFC002201210A20FEF750FEE8
:102010000A20FEF73FFE06B0BDE8F08130380240EE
:1020200000140240001002400000111010B596B0DC
:1020300000240F9410941194129413941C2108A856
:102040001494FEF7F5F820216846FEF7F1F82A48C7
:10205000284901604721C0E901144FF47A71C0E9B1
:1020600003148021C0E90541FFF76AFA08B1FEF7C1
:1020700026FA4FF480500F900FA91F48FFF7FDFA82
:1020800008B1FEF71CFA1C48FFF7B8FC08B1FEF7D0
:1020900016FA139413A918481494FFF704FA08B118
:1020A000FEF70DFA602008904FF4FA70CDE90904AC
:1020B0000B940C940D94002208A90F480E94FFF77E
:1020C00034FC08B1FEF7FBF900944FF40050CDE961
:1020D0000440029401940394694607480794FFF76B
:1020E000AFF908B1FEF7EBF90348FFF7F3FB16B0C1
:1020F00010BD0000000001402400002010B586B093
:1021000000241648009401940294039404944FF020
:1021100080410594016047F6FF41C0E9011449116F
:10212000C0E903148461FFF70BFA08B1FEF7C7F9A1
:102130004FF48050009069460848FFF79EFA08B1B6
:10214000FEF7BDF9049404A904480594FFF7ABF920
:10215000002801D0FEF7B3F906B010BD6C000020D6
:1021600010B5114C0F480C2120604FF416506060E0
:102170000020A060E060C4E90401A061E0612046A5
:10218000FFF7A8FD08B1FEF79AF92068C16841F091
:102190001001C160BDE81040C82204490248FFF7A1
:1021A0003FBE00000010014044020020B4000020A7
:1021B000FEE7FEE7FEF7C4BD70477047FEF706BDB9
:1021C00030B593B030216846FEF732F814210CA8E0
:1021D000FEF72EF81B480025016841F08051016090
:1021E000006800F0805011901748016841F4804168
:1021F00001600068022400F48040119001200090EA
:10220000000401908001CDE9064008AA0420402185
:1022100082E813000B906846FEF7BAFE08B172B66A
:10222000FEE70F20CDE90C048020CDE90E05012149
:102230000CA81095FEF792FD002801D072B6FEE7BB
:1022400013B030BD403802400070004002480168C1
:1022500041F470010160704788ED00E00148FFF72C
:102260007FBA00006C000020F0B402682C4B2D4CAB
:102270002D4D2E4EDFF8B8C098420AD0B0F1804FF5
:1022800007D0A04205D0A84203D0B04201D060459B
:1022900003D122F070024F683A43984228D0B0F13F
:1022A000804F25D0A04223D0A84221D0B0421FD0D9
:1022B00060451DD0A0F18044B4F5A03418D0A0F141
:1022C0008044B4F5A23413D0A0F18044B4F5A43412
:1022D0000ED0A0F18044B4F5C05409D0A0F18044E0
:1022E000B4F5E05404D0A0F18044B4F5005403D117
:1022F00022F44072CC6822434C6922F080022243CF
:1023000002608A68C2620A688262984201D06045AF
:1023100001D10969016301214161F0BC70470000EE
:10232000000001400004004000080040000C004094
:1023300000040140D0F808C02CF47F4C42EA03228C
:10234000114341EA0C0181607047826822F07002FB
:10235000114341F0070181607047000070B4026AC8
:1023600022F001020262036A4268D0F818C02CF021
:10237000700C2CF0030C0C6844EA0C0C23F00203E4
:102380008C6823430F4C104DA04201D0A84205D1C8
:1023900023F00803CE68334323F00403A04201D0A6
:1023A000A84207D122F4807222F400724C692243C1
:1023B0008C6922434260C0F818C0496841630362D7
:1023C00070BC7047000001400004014070B4026A14
:1023D00022F010020262036A4268D0F818C02CF49E
:1023E000E04C2CF4407C0C684CEA042C23F02003D5
:1023F0008C6843EA0413114C114DA04201D0A8424D
:1024000006D123F08003CE6843EA061323F040038D
:10241000A04201D0A84209D122F4806222F40062D5
:102420004C6942EA84028C6942EA84024260C0F844
:1024300018C049688163036270BC704700000140A6
:102440000004014070B4026A22F480720262036ADE
:102450004268D0F81CC02CF0700C2CF0030C0C68F7
:1024600044EA0C0C23F400738C6843EA0423114CF7
:10247000114DA04201D0A84206D123F40063CE68DA
:1024800043EA062323F48063A04201D0A84209D185
:1024900022F4805222F400524C6942EA04128C6900
:1024A00042EA04124260C0F81CC04968C16303627A
:1024B00070BC7047000001400004014010B4026A83
:1024C00022F480520262D0F820C04268C36923F42B
:1024D000E04323F440730C6843EA04232CF4005CCB
:1024E0008C684CEA043CA0F18044B4F5803404D0FC
:1024F000A0F18044B4F5823404D122F480424C69C6
:1025000042EA84124260C36149680164C0F820C095
:1025100010BC7047036AD0F820C02CF0010CC0F842
:1025200020C0D0F818C02CF0F00C4CEA021223F0B6
:102530000A031943826101627047036A23F01003A2
:102540000362D0F818C0036A2CF4704C4CEA0232D3
:1025500023F0A00343EA011182610162704710B5C4
:10256000806B0021C185C184FFF7B2FA10BD70B540
:10257000846B20684069C0F3C01094F83D100025BA
:10258000212904D118B1E584204600F075F82068AF
:102590004069C0F3801094F83E10222904D118B18C
:1025A000E585204600F043F8206C40F010002064E0
:1025B0002046FFF78DFA70BD10B50146886B09689B
:1025C000096811F4807F1BD10021C1850168CA68A8
:1025D00022F48072CA6001684A6922F001024A61ED
:1025E00001684A6922F040024A61202180F83E10C9
:1025F000016B012904D10168CA6822F01002CA6087
:10260000016B012902D0FFF722FC10BD818DFFF77D
:1026100032FA10BD10B5806B016B012902D0FFF7B3
:1026200017FC10BD818D4908FFF725FA10BD016820
:10263000CA6822F49072CA6001684A6922F00102F5
:102640004A61016B012904D10168CA6822F01002B5
:10265000CA60202180F83E1000210163704710B548
:102660000168CA6822F04002CA60202180F83D104B
:10267000FFF754FC002010BD0168CA6822F0C002B8
:10268000CA60202180F83D10704710B5044694F8C8
:102690003E00222801D0022010BDA168B1F5805F64
:1026A00001D1206928B1A06AB1F5805F1DD051B178
:1026B0000BE0A06A21684968C1F308010180A06AA3
:1026C000801CA06209E0216979B12168496801F0A4
:1026D0007F010170A06A401CA062E08D401E0004D2
:1026E000000CE08505D0002010BD2168496801700C
:1026F000F0E72068C16821F02001C1602068C1684E
:1027000021F48071C1602068416921F001014161BB
:10271000202084F83E00206B012805D02046FFF7DA
:1027200096FB0020206310BD2068C16821F01001D5
:10273000C160A18D2046FFF79EF9F2E72DE9F04137
:10274000044620680169E26821F4405111430161A7
:102750002169A068E2690843616911430143206867
:10276000C26822F4037222F414421143C16020684B
:102770004169A26921F44071114341612068A0F1CF
:102780008041B1F588312ED0A0F18041B1F58A3178
:1027900029D0FEF7A7FB8446E16900201927254DC3
:1027A0003226B1F5004F22D06068830F8200ACFB67
:1027B0000701FDF705FD0146A5FB002040097A420F
:1027C000424301EB820106EB0111A5FB01214909FE
:1027D00001F0F00202EB001001F00F010844216843
:1027E0008860BDE8F081FEF78DFB8446D4E7616820
:1027F0004A1840EB0003ACFB0701FDF7E1FC034680
:10280000A5FB0010410918460A016FF0180359434F
:1028100000EB810006EBC000A5FB0010400900F0B2
:10282000F80102EB410100F00700084421688860CC
:10283000BDE8F0811F85EB5137B582B004461346E1
:10284000039AA262A38500252564222084F83E0015
:10285000A16B1348C863A16B12480864A16B1248AE
:10286000C864A06B05652068011DA06BFDF7F8FF2B
:10287000206801684168019184F83C50C16841F4C6
:102880008071C1602068416941F0010141612068A7
:10289000416941F04001416105B0002030BD0000B8
:1028A000B9250008152600086F25000890F83D108E
:1028B000212901D0022070478168B1F5805F01D1E4
:1028C000016961B1016A4A1C0262026809785160BB
:1028D000C18C491E0904090CC1840AD013E0016AA5
:1028E00002680988C1F308015160016A891C01620C
:1028F000EEE70168CA6822F08002CA600068C16819
:1029000041F04001C160002070472DE9F0410446CC
:10291000069D884617461E462068006838EA000073
:1029200020D00020B84227D1B5F1FF3F1CD025B1FF
:10293000FEF746F9801BA84216D92068C16821F429
:10294000D071C1602068416921F0010141612020FE
:1029500084F83D0084F83E00002084F83C00032009
:10296000BDE8F0810120DDE72068006838EA00005A
:1029700005D00020B842D7D00020BDE8F08101206A
:10298000F8E7000010B5104C6078012813D10F4B08
:102990002178A3F1C802C82000F04CF900200B4AAE
:1029A0000146C83A02E01154401CC0B22378984254
:1029B000F9D3217061700549C822C839BDE81040BB
:1029C00001F5C870FFF72CBA040000207C0100203C
:1029D00010B500F01DF8BDE810400148FFF77AB8C7
:1029E00044020020FEE700000FB4084B10B504A914
:1029F00002AA039800F03CF8044602A9002000F067
:102A000013F9204610BC5DF814FB0000292C0008C7
:102A10000D4808B500680168C1F30011002911D004
:102A2000016841680091016840680748FFF724F891
:102A30000548443000684068C0F1C801034801708F
:102A40000121417008BD0000440200200400002064
:102A500002E008C8121F08C1002AFAD17047704767
:102A6000002001E001C1121F002AFBD170470000C5
:102A70002DE9FF4F8BB09A460F460546002606E02B
:102A800025280BD052460D9990476D1C761C28784E
:102A90000028F5D10FB03046BDE8F08F0024A046E5
:102AA0000122604900E0044315F8013F203B02FA8F
:102AB00003F00842F7D128782E2817D115F8010F16
:102AC00044F004042A280ED06FF02F022878A0F1D9
:102AD000300109290AD808EB880102EB410100EB1B
:102AE00001086D1CF2E757F8048B6D1C28786928E3
:102AF0003ED006DC0028CDD063280BD0642804D15A
:102B000036E0732810D075284BD052460D99904767
:102B1000761C85E017F8040B8DF8000000208DF876
:102B20000100E946012003E057F8049B4FF0FF3015
:102B300061074FF0000401D40AE0641C44450DDA3B
:102B40008442FADB19F804100029F6D106E0641C6F
:102B50008442FCDB19F804100029F8D1264404E073
:102B600019F8010B52460D999047641EF8D257E0B0
:102B700001CF4FF00A0B002802DA40422D2102E07B
:102B8000210504D52B218DF82410012103E0E10754
:102B900005D02021F7E70DF1200908910CE0002174
:102BA000F9E701CF4FF00A0BF9E75946FDF752FB61
:102BB00001F1300209F8012D0028F6D1ADEB090032
:102BC00000F1200B600701D44FF00108D84502DD69
:102BD000A8EB0B0000E000208046002406E009A8D6
:102BE0005246005D0D999047641C761C08988442FB
:102BF000F5DB04E0302052460D999047761CB8F181
:102C00000001A8F10108F5DC05E019F8010B5246B6
:102C10000D999047761CBBF10001ABF1010BF4DC80
:102C20006D1C34E7092801000A68531C0B60107002
:102C3000704700002DE9F05F8246304800249B4633
:102C40000068904600280F4620463AD1814600256C
:102C50002AE000BF5FEA090005D0012816D0B9F1CB
:102C6000020F20D119E0002607E02548A919825D4E
:102C700018F80100824205D1761C2148FDF7E3FADD
:102C8000B042F2D809F1010000B204E018F80500E2
:102C90003A2808D10220814605E018F805100BF803
:102CA0000410641CE4B26D1CBD420EDA5545D1DB44
:102CB0000BE000BF18F800200BF80420641CE4B2FD
:102CC000401CB84201DA5045F4DB00200BF8040048
:102CD000002C10D004F10A0000F06EF804465A46A9
:102CE00008A1FFF781FE204600F09CF82046BDE8D1
:102CF000F05F00F00DB8BDE8F09F0000000000207C
:102D0000AC2E000848656C6C6F2C2025730D0A00F2
:102D100010B5002821D0114B0022001F196803E0D4
:102D2000814203D80A4649680029F9D152B1136893
:102D3000841A9C4204D1006818441060104602E0D6
:102D4000506000E0186039B102680B1A934203D159
:102D50000B681A4402604968416010BD1C000020E5
:102D6000FDF73CFFFFF72CFAFFF7F8F8FFF7D8F86C
:102D7000FFF7C4F9FFF7F4F9FFF758F90C48FEF72D
:102D800037FCFDF733FB0B4C012291022046FDF787
:102D900010FF002261152046FDF70BFF0022A11550
:102DA0002046FDF706FF00BFFFF7ECFDFCE7000043
:102DB0006C00002000140240F0B50B30154D20F0DF
:102DC00007010024144A0FE003688B420BD38B42A7
:102DD00005D95E1A43184768C3E9006700E04368F5
:102DE000136002C004E0021D10680028ECD12046E8
:102DF000002802D1286808B10020F0BD064A074823
:102E00001060074A121A22F00702C0E900240120CC
:102E10002860D7E7200000201C0000204C03002081
:102E20004805002010B504460B4886B0006868B914
:102E30002046FDF708FA82B208A16846FFF7D4FDE4
:102E4000684600F015F80A20FDF742FD06B020465E
:102E5000BDE8104000F00CB80000002041542B43A6
:102E6000495053454E443D302C25640D0A00000066
:102E700010B50446FDF7E7F9214682B2BDE81040DF
:102E8000C8230148FEF7E5BF44020020000000000F
:102E9000000000000102030406070809000000000A
:102EA0000102030400061016000610162B495044B8
:102EB00000000000D42E00080000002024000000C4
:102EC000502A0008F82E00082400002024090000E1
:102ED000602A000800000000000000000024F40048
:102EE00001000000100000000000000000000000D1
:082EF0000000000000000000DA
:040000050800018965
:00000001FF
